S0210000626F6F746C6F616465722D756172742D62676170695F784732322E7333370D
S113000000100020D10100008101000099070000C8
S113001081010000810100008101000081010000D4
S11300208101000081010000C03000008101000056
S113003081010000083100008101000081010000FD
S113004081010000810100008101000081010000A4
S11300508101000081010000810100008101000094
S11300608101000081010000810100008101000084
S11300708101000081010000810100008101000074
S11300808101000081010000810100008101000064
S11300908101000081010000810100008101000054
S11300A08101000081010000810100008101000044
S11300B08101000081010000810100008101000034
S11300C08101000081010000810100008101000024
S11300D08101000081010000810100008101000014
S11300E08101000081010000810100008101000004
S11300F081010000810100008101000081010000F4
S113010081010000810100008101000081010000E3
S113011081010000810100008101000081010000D3
S113012081010000810100008101000081010000C3
S113013081010000810100008101000081010000B3
S113014010B5054C237833B9044B13B1044800E0CF
S113015000BF0123237010BD6810002000000000C0
S1130160F032000008B5034B1BB10349034800E01B
S113017000BF08BD000000006C100020F032000039
S1130180FEE70000064B0748DA1C121AC11E22F0D3
S11301900302994288BF0022034902F05DBF00BFF9
S11301A06810002008100020FC320000064B0748AD
S11301B0DA1C121AC11E22F00302994288BF0022DF
S11301C0002102F056BF00BF341300206810002045
S11301D008B5084B83F30A88074B084AC3E9002291
S11301E000F00EF800F02EFBFFF7CCFFFFF7DEFF68
S11301F000F0D6FA0000002000100020A5EDF5FE66
S1130200044B054A9A60D3F8882042F47002C3F87C
S11302108820704700ED00E00000000000F039B8CD
S113022000F039B810B5164BADF5067D01AC0FCB17
S113023084E80F002C22002105A802F01AFFFF23F6
S11302404FF4947200213CA88DF8153002F011FF90
S11302504822002110A802F00CFF6822002122A8E5
S113026002F007FF202322AA10A93CA800F0D6FF21
S113027022463CA905A800F043F80DF5067D10BD03
S11302809C3000007047017901220431033000F0F2
S11302906FBD00F083BC00B5C3B000F0DEFBB0F569
S11302A0027F17D14FF484720021684602F0E1FE08
S11302B0A0238DF8033002238DF8043001238DF838
S11302C0063046238DF80730002368468DF8083041
S11302D0FFF7D9FF4FF484720021684602F0C9FE8B
S11302E0A0238DF8033004238DF8043000F024FAA1
S11302F0CDF807006846FFF7C6FF43B05DF804FB7E
S1130300F0B5ADF5097D04460E46174600214FF4BD
S1130310847246A802F0ADFE20238DF81B3102231F
S11303208DF81C314FF48472002104A802F0A1FE60
S11303304FF47A7500F054FD0028FBD0012300959A
S1130340194603AA0DF1130000F06EFD9DF8133059
S1130350202BEFD101230321009503AA05A800F067
S113036063FD0028DED1039B032BDBD19DF81450E1
S113037075B140F6B8332946009303AA01230DF161
S1130380170000F051FD0028CCD1039B9D42C9D138
S11303909DF81530002B56D19DF81650022D0DD026
S11303A0032D1FD0012DBDD18DF81E518DF81F31A5
S11303B08DF8203146A8FFF766FFB3E721463046A3
S11303C09DF81730009706AA00F064FF8DF81E51BF
S11303D028B141F20703984214BF46200020ADF82B
S11303E01F01E7E7A3788DF81E5153B3E378002B80
S11303F00CBF4623002346A8ADF81F31FFF743FF87
S1130400A378002B8ED0E378002B8BD023785A0767
S113041007D5A06A00F09BF918B14FF4004000F032
S113042071F923789B077FF57DAF656800F084F947
S113043085427FF677AF616A4FF4004000F03AF9E5
S113044070E74623D7E7012B7FF46CAF9DF8163095
S1130450012B7FF467AFA37833B1E37823B940F27B
S1130460032000F0D1FA5DE79DF81730012B0CBF93
S113047040F2022040F20120F3E7C0F30C032DE91F
S1130480F04105460F4616460BB900F0EBFA05F5A8
S1130490005424F4FF5424F01F0405EB0608A0457F
S11304A007D8324639462846BDE8F041022300F019
S11304B0E7BA204600F0D6FA04F50054EFE770B42A
S11304C00025AD6A03462E69864206D86C6913443A
S11304D09C4202D370BCFFF7D0BF70BC70471FB5FD
S11304E010F5004F00F50043144603931AD2039B02
S11304F0B3F5FC2F16D2039BC3F5FC23934211D30F
S113050048B9836A5A69B2F5004F04D91869019150
S113051000F0A8FA01992246039804B0BDE81040FF
S1130520FFF7ABBF04B010BDF0B5421ED11C0346AB
S113053085B019D86E460D4C04F110073546206875
S11305406168083403C5BC422E46F7D10DF10F0192
S11305500F3311F8010912F8014F844204D19A4271
S1130560F7D1012005B0F0BD0020FBE7AC3000005E
S1130570036913F0FE0F0CBF01200020704738B54B
S113058004460D46FFF7D0FF48B16369012B09D13A
S11305902046FFF7EDFF08B1A3692B6038BD0120A9
S11305A02C60FBE70020F9E72DE9F04103680446DD
S11305B003F16043B3F5004F4FF00000A0B029D819
S11305C0826A636816699E4224D8B3F5002F21D845
S11305D0656B06F14003AB4268D8B5F5002F65D8CA
S11305E02846FFF7A1FF002860D02846FFF7C0FF88
S11305F080B16B6973B1022B0FD1AB69C4F10401F3
S113060019444FF0FF32204601F068FA284BC31A10
S11306105842584120B0BDE8F08140F204632846B6
S11306200493FFF781FF08B90020F3E72846FFF79A
S11306309FFF0028F8D00027D7F834804046FFF702
S113064073FF0028F0D0503EB045EDD8284605A9E8
S1130650FFF795FF0028E7D0BA6A059B12699A4212
S1130660E2D89C42E0D8B3F5002FDDD806A801F00B
S113067003FB059A2146121B06A801F011FB06A8EC
S113068001F010FB059C01F011FB039001F012FB3B
S113069021460090039B04F1200206A801F072FA9F
S11306A004900498B0FA80F04009B3E70120B1E760
S11306B0E320BBDE30B54FF0FF3289B005460C466F
S11306C001F00CFA0D4B984215D140F2022000F0D3
S11306D090F91C22002101A802F0CBFC084B29460A
S11306E06846009301F040FD6846214601F03CFD58
S11306F0684601F043FD002009B030BDE320BBDEB5
S11307000100064310B5044688B040F2022000F010
S113071070F91C22002101A802F0ABFC054B214614
S11307206846009301F020FD684601F027FD002093
S113073008B010BD0000034300239B6A986870470B
S113074008B501F0DBFDB0FA80F0400908BD4FF0B8
S1130750FF3313B5044601A80193FFF7F1FF20B15D
S1130760019BA3422CBF0020012002B010BD4FF416
S113077000407047002070470020704740B139B1F5
S113078000230B60034B03600B6843F480430B604E
S1130790704700BF142400404FF4017000F034B9D6
S11307A0244B10B51B68C3F30743012B0DD1224B17
S11307B004205A6E4FF4802320494B6601F5104102
S11307C0086250035CBF1E4A53664FF04023D3F8BF
S11307D08420110606D44FF400621A67D3F88420EB
S11307E0D206FBD4FFF7C6FF00F0F1F8FFF716FDC1
S11307F0FFF716FD18B14FF4017000F005F9FFF78B
S113080011FD0446FFF73EFD1CB140F203739C4208
S113081003D140F2012000F0F7F8A4F20574012C92
S113082094BF40F203204FF4017000F0EDF8002073
S113083010BD00BF0080E00F008000400090004029
S113084000A0004013B501244FF040238DF806406A
S11308508DF80740D3F894305B060BD500F0E8F828
S1130860A0F2022080B2072804D804FA00F010F0A5
S1130870C90F02D100F074FB20B100238DF80630BB
S11308808DF807304FF4C0435B68013308D14FF44F
S1130890027000F0AEF800238DF806308DF80730B2
S11308A09DF8073063B14FF4C040FFF77DFE8DF82B
S11308B006009DF806301BB94FF4027000F099F859
S11308C09DF8063063B14FF4C043064A936018465E
S11308D0016881F3088881F3098840688746FEE748
S11308E002B010BD00ED00E0B1F5057F10B504467F
S11308F00FD34FF40572002102F0BBFB04F5CE7256
S113090004F5AA7104F12C000023BDE8104000F0A6
S113091085BC40F2052010BD13B504460091014684
S11309202C3000F0B7FCC4F8100218B141F20703F0
S1130930984209D1A3784BB140F2032040F202233C
S1130940E278002A08BF184602B010BD40F2012028
S1130950FAE72DE9F04387B00DF1080904460E4685
S113096017460021102248461D46DDF8388002F063
S113097080FB00211C22C8F80010284602F079FBF5
S113098032463B462146CDF8009004F12C0000F09D
S113099081FC23789A0744BF6268C8F80020DB070B
S11309A009D504F1080304F1240253F8041B93420B
S11309B045F8041BF9D1237840F20640002B18BFF8
S11309C0002007B0BDE8F0834FF4057070474FF086
S11309D000534CF23C325A8070474FF000534AF6B1
S11309E0C0305B8823F00F039BB21B1A5842584156
S11309F070474FF0005208B51080FFF7EEFF10B9B2
S1130A004FF20F03538008BD08B5FFF7F2FFBFF3A1
S1130A104F8F0549054BCA6802F4E0621343CB606B
S1130A20BFF34F8F00BFFDE700ED00E00400FA05BF
S1130A304FF000534FF20F015A888A4201D11888AF
S1130A4070473AB91B8840F20220012B18BF4FF4BB
S1130A50007070474FF4007070474FF000531888CF
S1130A60704700004FF4003208B5044B9A6601F059
S1130A70E3FAB0FA80F0400908BD00BF00900040DE
S1130A80072BF8B506460F4614461D4601D900202B
S1130A90F8BD0121202001F029FA0121212001F0D3
S1130AA025FA8CB144EA06039B07F0D14FF40032D7
S1130AB0064B31469A66284623463A4601F0E6FA42
S1130AC0B0FA80F04009E3E70120E1E7009000403C
S1130AD01FB510220E4B5A6600F0F8F94FF47A2332
S1130AE0B0FBF3F00B4B0E2218600021684602F0B5
S1130AF0C0FA01238DF8003040F2FF3369460648FE
S1130B00ADF8023001F027FC05B05DF804FB00BF2E
S1130B1000900040881000200080044030B50D4D46
S1130B200D4A2D68536A15FB00F010FA83F09CB24D
S1130B3080B2A0422CBF00240124084B1880084B2B
S1130B401C7011B1536A8342FCD1012305494B61E6
S1130B50936130BD88100020008004408410002080
S1130B608610002000A00440094B0A4A58691278F4
S1130B7000F001000AB108B9704738B9586A064B49
S1130B801B88984234BF0020012070470120704721
S1130B900080044086100020841000202DE9F84FC6
S1130BA0DFF89481584BD8F80020584E9A42584F99
S1130BB007D12923C8F80430564B33604FF4A023DF
S1130BC03B60554B02F13C01DFF87091996002F1F2
S1130BD02403C9F82430C9F804304FF08063DFF8E7
S1130BE060A14FF0010BCAF864304FF40073CAF8E7
S1130BF0643002F58053C3F804B040F6AA630024BD
S1130C00536141F20503454D454802F50051946096
S1130C10D465D3601461D461D4648864C5F83C4657
S1130C20C5F85446C5F84C46C5F84446C5F8484688
S1130C30D3609368936000F049F93A4B4FF4E112A2
S1130C401B6F0521C3F380235B44B0FBF3F303F56F
S1130C50E1435B01B3FBF2F3334A203B02EAC303F3
S1130C60D8F800202046D3615B46042201F078F9CD
S1130C7020465B465A46062101F072F91423C5F852
S1130C803C364FF4A023C5F854364FF4C023052254
S1130C90C5F84C36D8F8003003215A614FF0F052B1
S1130CA0224BCAF86410C3F804B09A605C629C6377
S1130CB01C645C653A681E4802607A7B1A66FA7A9C
S1130CC0BC7A120542EA04423C7B42EA4452DA65A9
S1130CD0C3F8709032684260727BC3F89020F27A55
S1130CE0B07A120542EA0042307B42EA4052C3F82D
S1130CF08C20104A51630222C3F848B003F5805394
S1130D001A61BDE8F88F00BF000006409C10002067
S1130D108C100020020005004810002000C0034091
S1130D20FFFF010000800040F8FF7F000000044046
S1130D300040044000200440581000200810002007
S1130D4000900040084B586B10F0020006D00222BD
S1130D509A6203F5005301205A637047DB6A9B07CC
S1130D60FBD40222014BF6E70000044000200440BB
S1130D707F2938B50446154624D8FFF7E3FF20B38E
S1130D802046134B621890420DD1124B01391A8838
S1130D9061F30E121A80104AC2F8A0300223936441
S1130DA035B9002038BD10F8014B03F8014BEAE7D0
S1130DB0FFF7C8FF0028FBD0084B1A6893699B060D
S1130DC0FCD5EEE741F20310ECE741F20620E9E737
S1130DD0B0120020481000200000044058100020E9
S1130DE00E4BD86E40F2011398420FD040F202230A
S1130DF098420DD00A4BC01A0A4B1B6883420AD092
S1130E002ABFC3F50073C01AC01870470020F3E767
S1130E104FF48070F0E70020704700BF00000440EA
S1130E20AC100020AC1200202DE9F843089F0446C2
S1130E300D461646F3B9FFF7D3FFA84228BF28464C
S1130E4000214FF001084FF002091D4ADFF878E055
S1130E5013681C4F04EB000C64451DD101B11360F1
S1130E6006B1306041F20423A84234BF1846002082
S1130E70BDE8F8832FB1FFF72BFE00213846FFF7BA
S1130E804DFEFFF7ADFFA842D5D2002FF9D0FFF7F2
S1130E906BFE0028F5D0CEE71EF803100133B3F53E
S1130EA0007F04F8011B04D10023C7F8109001212E
S1130EB0D2E7B3F5807F08BFC7F81080F7E700BF1B
S1130EC0AC12002000100440AC10002030B51C4BC4
S1130ED087B001AA03F1100514461868596808334D
S1130EE003C4AB422246F7D11B782370154B1B6F0A
S1130EF003F00703032B1FD04FF48022124B5A66D2
S1130F00124A9368C3F30443102B17D806A90B4461
S1130F1013F8143C0E480F4943438B4203D19268A3
S1130F20C2F30162D340074A106FC0F303300130AB
S1130F30B3FBF0F007B030BD074BF4E7074BF2E723
S1130F405831000000800040009000400000014043
S1130F5040420F0000093D0000F04902C0EA2101AF
S1130F604FF08062164B13B55A66012304221946CA
S1130F70184600F0F5FF00230093009B632B19DD56
S1130F80012302221946184600F0EAFF00230193C8
S1130F90019BB3F5FA7F10DB0A4B00225C6C012342
S1130FA01846194600F0DCFF6FEA540000F0010017
S1130FB002B010BD009B0133DEE7019B0133E6E77D
S1130FC00090004000C0034000207047002070479C
S1130FD070B5D1E90152AA4205D290F840302B44B1
S1130FE09B1A402B10D9002012E00A6890F8404068
S1130FF0D65C90F841200133224402F03F020134D0
S113100086548B6080F840408B689D42EDD8012067
S113101070BD2DE9F8431D461746D1E901329B1AEC
S113102090F84020044613449D420E469DF82090BB
S11310309DF8248056D9FFF7CBFF00285CD11423F8
S113104041F2020084F84630BDE8F88394F8412068
S1131050A25CFA5494F841200133013202F03F02B9
S113106084F8412094F84020013A84F8402094F810
S113107040200AB19D42E9D1D6E90121914201D231
S11310809D4231D89D42DAD129463846D4F8882089
S113109000F024FDC4F88800B9F1000F04D02A46FA
S11310A03946E06C00F0FCFDB8F1000F08D094F86C
S11310B043308BB12B463A463946A06C00F050FDC4
S11310C094F8433043B1E36DA26D2B449342E3653E
S11310D024BF002384F84330636D41F203002B44A2
S11310E06365B1E70023C2E73268525CFA54B26820
S11310F001330132B260BFE70020A5E77FB50023CA
S1131100CDE90033082315460DEB03020446FFF72F
S113111080FF41F203039842064626D194F84330F7
S113112063B10822E06C0DEB020100F0B9FD082365
S11311300DEB03021146A06C00F012FD039A029B12
S11311406A6094F843202B605AB9094A934208D044
S1131150084A934205D00822E06C0DEB020100F02E
S11311609FFD6B68236500236365304604B070BD42
S1131170F70A0AF7FC0404FC2DE9F743044658680F
S11311800E4617469846002842D011F0030342D178
S11311909B6A206E1B6902EB000C1D1D65451CD863
S11311A01C33984219D28542294638BF01469C45D2
S11311B094BFC1EB0C02C1EB0302081AC5F1680528
S11311C006EB0009681820444946019201F044FFE7
S11311D0FF214846019A01F04CFF48F20403226EB5
S11311E09A420BD848F20701B818884206D99B1ACC
S11311F0F258C4F880204FF0FF32F2503A46D8E952
S11312000035206E3146A8470020226E3A442266FB
S113121003B0BDE8F08341F20200F9E72DE9F041A3
S113122000254FF0FF3704468846164603F0200396
S113123080F842301822FF21C0E91855A0F8405028
S113124080F84350A0F8445080F84650C0F88870A5
S1131250683001F00EFF88222946C4E91286C4F8DA
S11312608070C4F8847004F1900001F002FF40F231
S11312700113A4F824310123C4E9475784F8185111
S113128084F8263116B1304600F0F6FC0020BDE8A3
S1131290F08100002DE9F04FA7B0CDE913230293AC
S11312A0002304460E46309DDFF8B4931593159A37
S11312B0029B9A4201D30020C7E094F84630142BD5
S11312C0F6D8DFE813F06700AE00A800520039003A
S11312D02E00500239004802390002023900480247
S11312E09703050415008C013E033E03D002050458
S11312F04FF00008636D0F2B00F29180012710233B
S113130016AA2046CDF80480009713A9FFF781FEA2
S113131041F203030990099A9A4200F05281099B11
S113132044E00127D4E91432934200F25E8184F848
S1131330467041F2030339E04FF00108D4E9147216
S113134097426CD9BF1ADDE91423D21A94F84030BD
S1131350032F1A4440F20B82032A00F20B82204628
S113136013A9FFF735FE002320E00127636D072B47
S1131370DFD8082316AA2046CDE9007713A9FFF782
S113138048FE41F203030C900C9A9A4200F0B28199
S11313900C9B0BE016AA204613A9FFF7AFFE41F2FF
S11313A003020690069B934202D0069B059345E0F8
S11313B0179A16992265002262659E4A914240F06E
S11313C0A481022284F84620F0E7012316AA0093A0
S11313D020460823019713A9FFF71BFE41F20303DC
S11313E00790079A9A4201D0079BDFE7169B03F008
S11313F07F43B3F1407F05D0142384F8463041F293
S11314000903D3E7179BD80706D594F8423043F075
S1131410010384F842300027636D072BD5D90123DB
S11314209EE1204616AA13A9FFF768FE41F20303C2
S11314300890089F9F420BD0089F059741F2030331
S1131440059A9A423FF433AF059827B0BDE8F08F70
S113145094F84420169B2AB1774A934240F087803F
S11314600D2336E094F84220D10741D594F8432067
S1131470002A3DD171498B4233D022D8704A93421D
S113148075D014D86F4A934200F0888004D8694A12
S113149093426CD04B456AD0142316A884F8463086
S11314A0FFF792FD002865D141F20807C5E7664AB7
S11314B0934279D0F0D8654A934258D0644A934213
S11314C0E9E75D4A9342CBD006D8624A9342E3D11E
S11314D00F2384F84630B0E75F4A934247D05F4A0F
S11314E0EDE7102384F84630236DC4E91632A4E7EF
S11314F0574A93424AD02BD8514A934244D022D8D7
S11315004B453FD04F4A934244D016A8FFF75CFDA9
S113151000284BD01323169884F84630C4F88C0066
S1131520FFF754FD94F842309A0686D5002884D0FB
S11315304368002B81D0204698470890089B002BD5
S11315403FF47BAF16E0414A9342DED10323C0E768
S1131550414A93421CD010D83B4A934220D0364A89
S11315609342D2D194F84330002B3FF479AF142343
S113157084F8463041F201075FE7384A9342C4D108
S11315800823A6E70A23A4E70523A2E70623A0E786
S11315900C239EE794F84330002BE8D1112398E7FD
S11315A094F84330002BE2D1122392E7142384F8F9
S11315B0463094F84330002B3FF476AF41F20407F1
S11315C03BE7D4F848A000F079FB80230221CDE961
S11315D0000317AA3B46504600F098FA8AE6012316
S11315E084F8433084F8463061E616AA2046CDE9F3
S11315F0007713A9FFF70DFD41F203030A900A9A3D
S11316009A4201D00A9BD1E60DF1580C06F1080369
S11316100DF1700E624603CA724518605960944613
S113162003F10803F6D110681860337843F001031E
S1131630337077E6EB17A603FC0404FCF90707F9FB
S1131640F40A0AF4F30B0BF3F70A0AF7F50909F5A0
S1131650F60808F6FA0606FAFD0303FDFE0101FE8C
S1131660EB17A65E337843F004033370199BB3621F
S113167073785B0726D5EB238DF8583017238DF844
S11316805930A6238DF85A305E2300208DF85B3044
S1131690236D6066C4F8843094F8453043F0020347
S11316A084F84530EF686FB104222B6816A9B84757
S11316B00822606E2B68EF6818A91044B847636E5F
S11316C0103363660B2384F84630636D072B3FF6B3
S11316D030AE012318AACDE900332046082313A90C
S11316E0FFF797FC41F203030B900B9A9A42B9D08F
S11316F00B9B5BE63378179A43F002033370169B17
S11317007360236D083B73622AB1142384F8463056
S113171041F201034AE6042384F8463094F8453044
S1131720626643F0010384F845301FE6042316AAD9
S11317302046CDE9007713A9FFF76BFC41F20303C0
S11317400D900D9A9A4201D00D9B2FE6236D042B28
S113175002D9169B23660127636D032BE6D909235F
S113176084F84630E5E50023636607233AE79742A9
S11317703FF6F5AD402F28BF4027974228BF1746B4
S1131780032F88BF27F003073B4616AA2046CDE95E
S1131790008813A9FFF73DFC41F203030E900E9A53
S11317A09A4201D00E9B01E694F846B0BBF1070FB4
S11317B004D1D5F808A0BAF1000F1BD1042FC7F14A
S11317C0040A88BF4FF0000A16AB5246FF21D8190D
S11317D001F04FFCBBF1090FBA4414D12B46524619
S11317E0204616A9FFF7C8FC0E900E9B002B3FF471
S11317F0A5ADD7E73A462B68606E16A9D047626E4E
S11318003A4462669AE5BBF1040F20D173789F07CE
S11318107FF594ADEB68002B3FF490AD626E042A23
S11318200BD80AEB0203062B07D917AB9B1A1A68CD
S1131830C4F884204FF0FF321A60EF6852462B68D8
S1131840606E16A9B847676E5744676676E5BBF1C4
S11318500B0F7FF473AD737858077FF56FADEF68A6
S1131860002FEBD16AE594F8427017F0200707D0F7
S1131870D4F88C00FFF7AAFB074600283FF448AFD2
S11318804FF0010A42E04BB347B33B6933B3204600
S11318909847DDE9143294F840809B1A434483420C
S11318A0FFF45DADD4E91421A2EB0108B8F1400FB7
S11318B028BF4FF04008984528BF984616AA4346CB
S11318C02046CDE900AA13A9FFF7A3FB41F20303C5
S11318D00F900F9A9A4203D00F9B67E50120D8E737
S11318E094F84230990611D5002F3FF411AFD7F880
S11318F008B0BBF1000F3FF40BAF2B464246204625
S113190016A9D8470F900F9B002BE5D1D4E91421D9
S113191094F84230914203F02003B4D3002B3FF4F7
S11319207EAD002F3FF47BADFB68002B3FF477AD19
S11319302946204698470F900F9B002B3FF46FAD2C
S1131940CAE700218A6A496B1269503A91423FF60C
S1131950DFAE112B0FD194F81831002B7FF45FAD5B
S113196041F206031093109A9A4202D1142384F888
S11319704630109B1AE594F84430002B7FF44FADA9
S1131980CDE9003316AA4023204613A9FFF741FBF3
S113199041F203031090109A9A42EAD1E06C00F0ED
S11319A081F994F81831A3B104F1B403E06C009305
S11319B01EAA04F1940316A900F0E4F81090109BF9
S11319C09BB10023F370142384F8463041F20603DC
S11319D0ECE4E76C00F06AF9039000F06BF9039B08
S11319E000901EAA384616A9E6E70123F37084F88E
S11319F0443014E5002316AACDE90033204604231D
S1131A0013A9FFF706FB41F203031190119A9A42BE
S1131A1002D0119B059317E5D4F888202E4B9A42E7
S1131A2005D0142384F8463041F20503F2E701237C
S1131A30F37094F84530DA0707D5EF682FB1042224
S1131A402B68104604F18401B84794F845309B078D
S1131A5007D5EF682FB104222B68104604F18401E6
S1131A60B847236E6BB36F685FB34FF0FF3304F175
S1131A708001042212A81293029101F0DDFA28B128
S1131A80042248F204002B680299B84704F168095B
S1131A900422494612A801F0CFFA90B100239B6AB0
S1131AA01422D3F8108004F16C0108F10800D5E980
S1131AB00037B847D5E900370422494608EB02004D
S1131AC0B8470123B3700E2384F846300023A1E7FE
S1131AD041F20700B9E400BFE320BBDE30B50824BF
S1131AE0094B00255C66012403F5FE235C60014478
S1131AF09D601A61DC60884201D1586A30BD10F8DB
S1131B00012B1A62F7E700BF00900040F8B51646B3
S1131B104FF400521D46114B04469A660222C3F844
S1131B2060220F4601F092F9DDE90612204601F029
S1131B3091F9002384F8387063623368C4F839304B
S1131B407368C4F83D30B368C4F841302B0C6DBAE7
S1131B5084F84530A4F84650F8BD00BF009000401A
S1131B6030B50D4685B0194600F12803CDE9015280
S1131B70009300F1240200F1380301F0B7F905B035
S1131B8030BD00002DE9F041B0B014460646369D44
S1131B9000286AD0002968D0002A66D0002B64D0BF
S1131BA0002D62D006224FF400500692304A20AF36
S1131BB090660320C2F860020022BE4609920C928D
S1131BC00F920A4601F12008F44610685168083261
S1131BD0ACE803004245E646F6D122460DF1A00CDE
S1131BE004F1200E644610685168083203C472453B
S1131BF0A446F7D10DF1400C1A46644603F1200EB9
S1131C00234610685168083203C372451C46F7D155
S1131C102B4618AC2035224618685968083303C28D
S1131C20AB421446F7D14023CDE90A73089320232D
S1131C300AAA0E9303AB07CACDF81CC00D9683E81D
S1131C40070007AB93E807008DE807000DAB0ECB48
S1131C50084800F025FF0690069B40F20460002B24
S1131C6008BF002030B0BDE8F08140F20160F9E720
S1131C7000900040C43200004FF40052074B10B5EE
S1131C809A6602220446C3F8602200F0CFF8204688
S1131C90BDE81040002100F0CDB800BF0090004026
S1131CA000F0CDB8014600F0D7B8000000487047F6
S1131CB04CE30700004870476CE307000048704796
S1131CC086E207002DE9F34799460A9B0C461968FA
S1131CD005463F29164642D85A68002A41D0224A6E
S1131CE0002E14BFB046904601F03F07091928BFE3
S1131CF05A68196024BF01325A60AFB1C7F1400A73
S1131D00A24521D82946524609EB070001F0A4F95F
S1131D100123414600934A463346002000F0A3F8CD
S1131D20B046403C55443C443F2C0CD9A3092A46B8
S1131D30009341463346002000F095F824F03F0319
S1131D401D4404F03F0400272CB12246294609EB28
S1131D50070001F081F9002002B0BDE8F087904649
S1131D60C2E7DFF80480BFE76931000030B40546FC
S1131D70084611461A46DDE9023425B931B1029408
S1131D8030BCFFF79FBF024830BC70470846FBE7F2
S1131D9080AFFFFF2DE9F0411746146886B01E4658
S1131DA0E3008DF80F30630952688DF80E30630B31
S1131DB08DF80D30630D8DF80C30D30003EB5473A4
S1131DC08DF80B3004F03F045309372C8DF80A309A
S1131DD04FEA52334FEA525205468DF8082088469E
S1131DE094BFC4F13802C4F17802CDE900178DF82C
S1131DF009300D4903460020FFF7B8FF0821434688
S1131E002A4600970DEB0100FFF75CFF284605F119
S1131E10200350F8042B984246F8042BF9D10020F3
S1131E2006B0BDE8F08100BF8931000068220021BE
S1131E3001F01FB90023C0E900331846704707B505
S1131E4000F128030190009300F108030020FFF73C
S1131E508DFF03B05DF804FB02460B4600F1280138
S1131E600830FFF797BFF0B51D4693B0002837D16F
S1131E70189B06909B01CDE904230AAB0A461E4633
S1131E8001F120071C4610685168083203C4BA42A5
S1131E902346F7D100230796099301F0B5F80446C9
S1131EA0D8B92023089304AB93E807008DE8070012
S1131EB007AB04200ECB00F061FF074601F0B0F839
S1131EC08FB92B46324612AE154603CDB542186083
S1131ED059602A4603F10803F6D1204613B0F0BD39
S1131EE06FF07104F9E76FF06F04F6E7420910B57B
S1131EF010D0012A10D00B4B0B4C022A18BF2346DA
S1131F0000F01F0051B103F58053012202FA00F0E2
S1131F10186010BD1346F3E7044BF1E703F50053D3
S1131F20F3E700BF688000406082004064800040A6
S1131F30EFF3108072B6704700B962B6704770B59F
S1131F40054614460E46FFF7F3FF296881EA0402AA
S1131F5002EA06044C402C60BDE87040FFF7ECBF79
S1131F60F8B504460D461F4616464AB101238B4078
S1131F703021194A01FB0022FFB141F210015350F4
S1131F8004EB4403072D4FF00F014FEA031317D856
S1131F90A80006FA00F2814010481844FFF7CFFF6A
S1131FA056B9012130230C4801FA05F503FB04005E
S1131FB077B141F21003C550F8BD42F21001DEE7DB
S1131FC0A5F10800800006FA00F281400448E4E725
S1131FD042F21003EFE700BF00C0034004C0034017
S1131FE00CC00340F0B5114A114C124E00F001052B
S1131FF0E3695F0713D40DB9334213D103EA000731
S11320008F4207D10B4A1A40002A14BF6FF0010017
S11320100020F0BD013AEBD16FF00200F9E74FF078
S1132020FF30F6E76FF00100F3E700BF80969800F9
S113203000000340020001004FF4003238B50F4B9A
S11320400F4C9A6641F671330122E569E3630D4B47
S11320500021DA60022360612120236105F48035C8
S1132060FFF7C0FF10B92120FFF7BCFF0122064B88
S1132070DA600DB10023E36338BD00BF0090004077
S11320800000034000100340002003402DE9F04FFE
S113209006464FF4402501202C4CDFF8BCC04FF419
S11320A00037CCF8040044F8265030250024DFF82B
S11320B0ACE0DFF8AC9005FB06E5EC652C662C671C
S11320C0234CDFF8A0A0A76641F6713704F51C3451
S11320D0D4F81C80E763E76800FA06F60743E76074
S11320E04BB9E26818F4803F22F00102E26000D0AC
S11320F0E363184628E001F5005000EA0900401A9D
S1132100984228BF18466161D4F81CB087081BF0B8
S1132110040F17D1013F3F0147F060576F66AA666D
S1132120C5F86CA0CCF82460DEF834703E42FBD0D5
S1132130084F01447E630427CCF8286002442761D9
S11321401B1ACDE74FF0FF30BDE8F08F004004408C
S113215000900040002004400010044000000440AF
S113216000E0FFFF18000340C369032B9FBF00EB8F
S113217083020133D160C361704700002DE9F84345
S1132180C3690446042B6FD8FFF7D2FE4FF48032A4
S1132190364B3749586E03F580535A66354D364BE6
S11321A0C003C1F80036C1F804565CBFA1F5E421B0
S11321B04A66324AE6691A602268314D5A6004F16F
S11321C00C03C4F1204203EB860102F598428B42D2
S11321D002EB030020D130460027636803BB394675
S11321E00446254A41EA0661916013685168926881
S11321F04B4053400022A24231D145F82230BFF374
S11322004F8F2049204BCA6802F4E0621343CB602D
S1132210BFF34F8F00BFFDE753F8047B0760D6E799
S11322200022D3F8009005EB800ED3F808C0F046E6
S1132230CCF3990C624502EB070102EB00040EF1AA
S1132240040E06D35A68012ACBD00F4620465B6899
S1132250C4E759F822100132C8F80010E5E755F830
S1132260221001324B40C6E7BDE8F88300800040ED
S113227000C00740004E00A0004C00A0DEC0ECE50A
S11322800C4C00A000ED00E00400FA054FF480318E
S1132290174B10B5586E03F58053596603F5E623C2
S11322A0D3F8043603F1C042A2F58042B2F5606F60
S11322B001D9002010BDC2035CBF0E4A51661968E3
S11322C00D4A9142F5D11A690532B2F5007FF0D278
S11322D000210C46914205D353F82200031B5842B7
S11322E05841E7E753F8210001314440F2E700BFC9
S11322F00080004000A00040DEC0ECE538B50F4B84
S11323000F495A6E4FF48033D20358BF0D4A4B66BF
S113231001F5E621D1F80456044658BF536630B19E
S1132320FFF7B4FF30B100206B68236038BD4FF471
S1132330E020FBE74FF47E00F8E700BF0080004098
S11323400090004000A00040036BDA0702D5036947
S11323505B06F9D4704710B5FFF7F6FF012200F5CC
S113236000531A630B79044648881B0243EA8043EE
S1132370487A03434878002814BF402000200343D0
S1132380887A002814BF802000200343C87A0028DC
S113239014BF202000200343087B002814BF102012
S11323A000200343487B002814BF08200020034377
S11323B08879002814BF4FF4803000200343636001
S11323C004F580531A630A780AB90223E3600023F0
S11323D06362C8790B7A497943EA8003002914BF00
S11323E0102100210B43A3600AB10123E36010BD57
S11323F013B51AB10024009400F04CF902B010BDDA
S113240060B5054619B10139B1F5806F10D2094E96
S1132410F06810F48030FBD143EA0121120741EA4D
S1132420050302F08052134343F00043736060BD20
S11324300120FCE70020024CF0B58DB005AC84E827
S113244007001C46A1420D4628BF2546129B0DB32A
S113245004B311462846002603F51813CDE90A46AD
S11324608DE8030003F241135F02C5EB4323099394
S113247002950CAA059B12E90700069500F098FC4A
S1132480A54207D23146621B381B0DB0BDE8F040AF
S113249000F08CBC0DB0F0BD30B591B001AC84E857
S11324A007001C461346DA0049BF029A6200033251
S11324B022F00302014604A8FFF79AFF04A800F0E3
S11324C0FFF81499224601F5181101F241114D0249
S11324D008A8C4EB41210023FFF78AFF05F500712A
S11324E000232246091B0CA8FFF782FF0CA800F06A
S11324F0E7F808A904A800F0BDF811B030BD10B584
S11325008CB005AC84E807000E9ADDE9060102F5FB
S1132510181202F5A0725202CDE9092300228DE8B7
S113252003000B9202930CAA059B12E9070000F02A
S11325303FFC0CB010BD00000122054B9A60DA6824
S1132540D203FCD4D86820F00F000004000C7047BC
S11325500020024C2DE9F04B4FF000089946074645
S1132560164645468AB003AC84E8070002F0805B57
S113257007AC049A424502D80AB0BDE8F08B139B1D
S113258013B9AA1E012A0AD9129BCDE90779099623
S113259000955BB194E807004B46FFF74DFFBBF194
S11325A0000F00D14F440135C844E2E74B4694E89C
S11325B00700FFF7A4FFF2E782B01FB507930A9B59
S11325C004AC8B4228BF0B4604E907001048D10035
S11325D0079948BF03330160099948BF23F00303F7
S11325E023F0704301F0E041194341F00051816050
S11325F0002102F0E042019C134343F00053C16008
S113260004618361416304B0BDE8104002B07047C7
S11326100000024C3F22034B1A631022DA610322AA
S11326209A6370470000024C024AD36B9B07FCD4A8
S1132630704700BF0000024C034B986A10F024005E
S113264018BF0420704700BF0000024C08B5FFF714
S1132650F3FF064BDB6B23F47F4323F0EF030343C9
S11326601EBF0122024BC3F8FC2F08BD0000024C20
S113267000F0FF3F032208B5054B186019615A6347
S1132680FFF7C8FFFFF7D0FFBDE80840FFF7DEBF44
S11326900000024C10B522F0704200F11004C0E9B1
S11326A00014826041B1826803F070431343836075
S11326B0029BC360204610BD836843F08043F6E765
S11326C001234360C36843F02003C360836843F07D
S11326D0005383607047C36803F00F03012B02D0DB
S11326E0033B012B08D8C36801F01F0143EA01230F
S11326F0C3608368194481607047000042680346E0
S1132700182A10B50AD0202A1DD0102A2BD1174A16
S1132710D2F80424D4010AD4012013E0134AD2F8D5
S113272004249001F8D50A6842F008020A601048AF
S11327301A6882424FF000000ED10A6842F040024B
S11327400A60586010BD094AD2F804245201E3D546
S11327500A6842F00402E9E7064CA242F2D10A6890
S113276042F08002ECE70720ECE700BF0000024CD7
S113277030130020311300200B4607B50749D1F868
S11327800414C90708D5002100920246084600F047
S11327901FF903B05DF804FB0120FAE70000024CC6
S11327A00B4607B50749D1F80414C90708D50092A8
S11327B001210246002000F00BF903B05DF804FB90
S11327C00120FAE70000024C1FB50A4CD4F8044477
S11327D064070CD5CDE900120021069C0222CDE944
S11327E002340346084600F01DF904B010BD012070
S11327F0FBE700BF0000024C37B54D68044645B105
S11328008C680093096842EA04032A46FFF742FFF2
S11328100446204603B030BD2DE9F04F2DED028B68
S1132820D1B0019008EE903ADDE95D59DDE95F87AA
S11328300420002301AECDE9030305AB08EE102A02
S113284007C983E80700314618460296619CFFF7E2
S113285055FF0646002840F0B5805C9A08AB07CACD
S113286083E80700D8F80420D9F804304942134417
S11328705B4203F00F0B7B6801F00F0A5B4200938D
S1132880AB68DA0041BF6B68033323F003036B606A
S1132890A368DB0041BF6368033323F00303636071
S11328A00023D9F80400D8F80420CDE913338118A3
S11328B05944CDE90C1369680B93494201F00F01A7
S11328C0CDE90E3161681093494201F00F01CDE961
S11328D01131CDE9153317935C9B5B684BB97B6869
S11328E01343034305D110218A46CDE9091314AAE1
S11328F0089211234FF0005202A930A8FFF77CFF81
S113290040F611034FF0005205A9FFF775FF42F698
S113291011034FF0005218EE901AFFF76DFF44F6C2
S113292011034FF0005218EE101AFFF765FF412310
S113293000224946FFF760FF4FEA0B234FF0005295
S1132940414643F04103FFF757FF4FEA0A234FF094
S1132950005243F0010308A9FFF74EFF009B4FF01C
S113296000521B0203F47063394643F00103FFF77E
S113297043FF1038FFF7A4FE00230BA91A4618A83A
S1132980FFF73AFF002329461A46FFF735FF0023D5
S11329900EA91A46FFF730FF002321461A46FFF717
S11329A02BFF002311A91A46FFF726FF0023629983
S11329B01A46FFF721FF1038FFF782FE18A930A846
S11329C0FFF758FE304651B0BDEC028BBDE8F08FE6
S11329D0F0B51C465B6815468DB01A07129E1AD1D5
S11329E0CBB17268934216D10C4B0D4A53F8217047
S11329F009AB07CA83E807001A462946CDE905331F
S1132A00CDE90333CDE90163009447F48070FFF707
S1132A1003FF0DB0F0BD0720FBE700BFFC31000051
S1132A20CC3100002DE9F0418CB0DDE9127C7C68EA
S1132A301E46DDE9143E200728D13CB3DCF804002F
S1132A40844223D15868102820D1DEF804001028CD
S1132A501CD10F4809AC50F821500E4951F822807E
S1132A600D4A07CA84E8070045EA080022463146B1
S1132A70CDE9054ECDE90344CDE901C4009740F00A
S1132A803000FFF7C9FE0CB0BDE8F0810720FAE77B
S1132A90FC310000D8310000CC31000000697047DF
S1132AA070B586B003AE054686E80E00FFF7F6FF64
S1132AB0202804463AD86A6800EB80039A4203D07F
S1132AC0062343439A4233D10B9BB3EB440F2FD1DC
S1132AD00E9A93422CD1012221463120EB68FFF754
S1132AE08FFC08BB95E807000123CDE9003323469A
S1132AF0FFF730FD08230AAA009307CA2346FFF70D
S1132B00CBFC0C23009396E807002346FFF794FCC4
S1132B100A230DAA009307CA2346FFF7BDFCFFF75B
S1132B200BFD002818BF032006B070BD0120FBE791
S1132B300720F9E70138C0B206289ABF014B185C98
S1132B4000207047D83200000138C0B206289ABF6E
S1132B50014B185C00207047DF3200000138C0B21E
S1132B6006289ABF014B185C00207047E63200002B
S1132B702DE9F04FBBB0804603A880E80E007E4BE1
S1132B809DF81091D3F80024D40603D401203BB05F
S1132B90BDE8F08F08F1FF32059EDDE903A7062AA0
S1132BA000F2E780DFE802F0041A20262C32380015
S1132BB0D3F80C34D807E9D5012307930023B9F1DE
S1132BC0010FCDE908332DD0B9F1020F00F0928046
S1132BD04046FFF7C3FF6324054631E0D3F80C34C5
S1132BE09907D3D50223E8E7D3F80C345A07CDD597
S1132BF00423E2E7D3F80C341B07C7D50823DCE72A
S1132C00D3F80C34DD06C1D51023D6E7D3F80C3441
S1132C109C06BBD52023D0E7D3F80C345806B5D591
S1132C204023CAE7544BD3F80C34D903AED5079BE1
S1132C30404643F4C0630793FFF77CFF0324054633
S1132C4013230422009307A94FF0005312A8FFF79F
S1132C5021FD5146009446F000533A46FFF71AFD11
S1132C604FF0000B04465E46DDF814A1469B9B45DD
S1132C7064D1B9F1030F0AD14046FFF76FFF8742D1
S1132C8077D14046FFF760FF0138304271D1002E02
S1132C9067D1032332462046009308A93346FFF741
S1132CA0F9FC04260446A4F110000290FFF708FD85
S1132CB031460298FFF70FFD489AAA4228BF2A46D8
S1132CC01446002A53D00023479900930AA8499B2D
S1132CD0FFF7E0FC2A1B04D0002319460093FFF7FA
S1132CE0D9FC1038FFF7ECFC12A80AA9FFF7C2FCC4
S1132CF000204CE7204BD3F80C24D2037FF546AFD9
S1132D00D3F80C349B037FF541AF97B17C4239462D
S1132D10374604F00304079B404643F4E0630793FB
S1132D20FFF708FF24023E4605460F4644F0A3047D
S1132D3086E704210DF1200A0C46ECE7DAF80420BA
S1132D4016444AB1032300932046DAF80830DAF82F
S1132D500010FFF79FFC04460BF1010B0AF10C0A6B
S1132D6084E716F0030618BFC6F104069BE70AA819
S1132D70B0E707200BE700BF0000024C70B58AB033
S1132D8007AC84E80E0003AD064694E8070085E826
S1132D900B00012302930EAB0193032300933046EF
S1132DA094E80E00FFF7E4FE0AB070BD00F061B9CC
S1132DB082B02DE9F0418AB005AE12F0804586E874
S1132DC00700149C119333D1139B8C4228BF0C46EB
S1132DD013F080538846129A02D1944228BF1446B5
S1132DE034B30F2C13D9DDE912018DE803000294EA
S1132DF0119B96E80700FFF7DFFBFFF70BFCFFF7DB
S1132E0013FC0AB0BDE8F04102B0FFF71FBC059EF9
S1132E10119F93B1A8EB0502042A3B6828BF042242
S1132E20701909A90435099300F016F9AC42F1D8D8
S1132E300AB0BDE8F04102B0704722463946304638
S1132E400AB0BDE8F04102B000F006B92422002126
S1132E5000F00FB970B515460E4624220021044631
S1132E6000F007F925F04003802B02D0B5F5807FF0
S1132E7008D12046314640F8045BEA0800F0ECF83B
S1132E80002070BD6FF01F00FBE730B504680D46ED
S1132E9024F0400180298BB002D0B4F5807F22D188
S1132EA00021CDE9031210220430E408CDE9052104
S1132EB0CDE9073201900294099100F0A5F868B9B0
S1132EC0012D07AA04A901A80AD1FFF755FC04465D
S1132ED000F0A6F8204318BF6FF06F000BB030BDB0
S1132EE0FFF75EFCF3E76FF07100F7E72DE9F04FB1
S1132EF082460F469846164691B012B31568DAF822
S1132F00003023F04002802A02D0B3F5807F73D1D1
S1132F10DB08002405931023CDE908341B9BCDE97D
S1132F2006480AF104023B44049202930DF11C0B7F
S1132F30BC4208D3002E65D00020356011B0BDE836
S1132F40F08F1546DBE75DB11B9B1A9A1B5D525D42
S1132F50013553401C9A05F00F0513550134E7E77A
S1132F60A7EB0409B9F10F0F1ED91B9B29F00F0918
S1132F702344CDE90A391C9B0C952344CDE90D3932
S1132F800F9500F041F80028D8D15B460DAA0AA994
S1132F90CDF800B004A8FFF717FC039000F040F848
S1132FA0039B03432BD14C441B9B03EB04091C9B45
S1132FB01C44029B4B4501D13C46B9E78DB94246BE
S1132FC0012150461A9BFFF760FF0028B6D108F193
S1132FD0100212F8013D0133DBB213700BB99045B6
S1132FE0F7D11A9A19F8013B525D0135534004F8A0
S1132FF0013B05F00F05DCE76FF071009EE76FF011
S11330006F009BE7304699E74FF40052034B0020D2
S11330109A660322C3F86022704700BF0090004004
S11330204FF40052034B00209A660322C3F8602237
S1133030704700BF00A000400139024410B590421F
S113304001D1002005E0037811F8014FA34201D01B
S1133050181B10BD0130F2E70A44431E914200D10F
S1133060704710B511F8014B914203F8014FF9D1A3
S113307010BD02440346934200D1704703F8011B7C
S1133080F9E70000F8B500BFF8BC08BC9E467047DD
S1133090F8B500BFF8BC08BC9E46704700000000AD
S11330A0BF04000000000000DF040000B814B6F103
S11330B0E0CFF3ADB7DD25C9FA79B71300000000FE
S11330C007B0CD5E02000000000001026033000082
S11330D00060000000000800F00410007507000004
S11330E079070000A9050000E9080000190900009B
S11330F00000000053090000C9090000000000009E
S11331007D0700006F07000013B779FAC925DDB702
S1133110ADF3CFE0F1B614B80102000000000000E6
S11331205C330000400000000000010200000000C9
S1133130000000000000000000000000000000008B
S1133140000000000000000000000000000000007B
S113315000000000000000000400000700000D1043
S113316013001A2026303840506A09E667BB67AE60
S1133170853C6EF372A54FF53A510E527F9B05685C
S11331808C1F83D9AB5BE0CD1980000000000000E8
S1133190000000000000000000000000000000002B
S11331A0000000000000000000000000000000001B
S11331B0000000000000000000000000000000000B
S11331C000000000000000000000000000000000FB
S11331D000000000000000400001000000020000A8
S11331E0000400000008000000100000002000009F
S11331F0004000000080000000000100000000000A
S113320001000000FFFFFFFF0000000100000000BC
S11332100000000000000000FFFFFFFFFFFFFFFFB2
S1133220FFFFFFFFFFFFFFFF00000000FFFFFFFFA6
S1133230FFFFFFFFBCE6FAADA7179E84F3B9CAC22D
S1133240FC6325516B17D1F2E12C4247F8BCE6E54B
S113325063A440F277037D812DEB33A0F4A13945BB
S1133260D898C2964FE342E2FE1A7F9B8EE7EB4A60
S11332707C0F9E162BCE33576B315ECECBB6406897
S113328037BF51F5FFFFFFFF000000010000000001
S11332900000000000000000FFFFFFFFFFFFFFFF32
S11332A0FFFFFFFC5AC635D8AA3A93E7B3EBBD55E6
S11332B0769886BC651D06B0CC53B0F63BCE3C3E3A
S11332C027D2604B04320000C00000000000000060
S11332D0000010002000000010141C20304020408A
S11332E040404080804010142020404020000000D6
S10F32F0FC320000081000201800000050
S11332FCF00F100300000000AC10002013000000BD
S113330C090000000001000002020000130000008C
S113331CF00F100300000000AC110020130000009B
S113332C090000000002000001010000D3FFFFFFB0
S113333CF07F1030B01200200000000000000000EC
S113334C0000064028000000650100004101000057
S90301D12A
