S012000062745F7263705F784732322E733337E6
S214006000001000206D6500006965000069650000ED
S2140060106965000069650000696500006965000043
S2140060206965000069650000696500006965000033
S21400603069650000B4FA01000D7B01006965000087
S2140060406965000069650000696500006965000013
S2140060506965000069650000696500006965000003
S21400606069650000696500006965000069650000F3
S2140060708594000069650000696500005D9B00006E
S21400608069650000696500006965000069650000D3
S214006090696500000D6E0000696500006965000016
S2140060A069650000316F00000D6F00006965000033
S2140060B06965000029DE01006965000009E8010045
S2140060C0C1E70100BDE70100F9DF010005E80100B6
S2140060D0C5E70100DDE70100C9E7010069E8010046
S2140060E031CB010095CB010049E80100696500004D
S2140060F06965000069650000696500006965000063
S2140061006965000069650000696500006965000052
S2140061106965000069650000696500006965000042
S2140061206965000069650000696500006965000032
S2140061306965000069650000696500006965000022
S21400614010B5054C237833B9044B13B1044800E06E
S21400615000BF0123237010BD28120020000000009D
S2140061606041020008B5034B1BB10349034800E039
S21400617000BF08BD000000002C1200206041020095
S214006180A3F5803A704700BF174B002B08BF134B90
S2140061909D46FFF7F5FF00218B460F461348144A2D
S2140061A0121A18F05EFE0E4B002B00D098470D4BCF
S2140061B0002B00D098470020002104000D000D4859
S2140061C0002802D00C4800E000BF18F0DFFD2000D9
S2140061D0290000F015F818F0C5FD00BF0000080003
S2140061E00000000000000000001000202812002020
S2140061F0742A00200000000000000000704770476E
S21400620008B503F05CF9FFF7F9FF03F065F9FFF74F
S214006210F6FFFAE710B511F035FC0446F8B94FF46E
S214006220E05011F009FC11F093FC11F04DFC04F065
S21400623007FB0CF09DFF08F05FFE0AF0C1FC05F0BE
S214006240F6FF0DF035FE22460221042011F020FC58
S21400625001200AF001FFBDE8104006F087BA10BD25
S21400626008B511F00FFC40B100200AF0F5FE0AF068
S2140062706DFEBDE8084011F0F9BB08BD08B5012069
S21400628000F0B2F8202000F0AFF8BDE8084040204B
S21400629000F0AAB808B50321802001F01FFF0321F3
S2140062A04FF4806001F01AFF03214FF4906001F074
S2140062B015FF08214FF4C06001F010FF08214FF4CD
S2140062C0F06001F00BFF08213E2001F007FF0821D7
S2140062D02D2001F003FF002008BD000008B5144B78
S2140062E01B68C3F30743012B0ED1124B04205A6ED2
S2140062F04FF480231049520358BF104A4B6601F5ED
S2140063001041086258BF536602F0AAFE00F095F8E6
S21400631002F038FE02F058FE02F08CFEFFF7BAFFDD
S21400632002F040FE00F07EF8BDE8084000F032BB08
S2140063300080E00F008000500090005000A0005049
S21400634008B500F0B9FDBDE8084000F035B808B55E
S21400635000F048F802F02AFF03F01CFF03F0C2FC2E
S214006360BDE8084004F01AB908B502F0FBFDBDE828
S2140063700840FFF74FBF08B503F07CFB0EF020FC8B
S21400638010F000F80EF010FF0FF07AFF0FF05AFE34
S214006390BDE808400FF0A2BF704703F0DBB97047B6
S2140063A07047000018B1034B186000207047252086
S2140063B0704700BFA012002010B5054C05492068A4
S2140063C001F0CAF82068BDE81040FFF7EBBF00BF39
S2140063D02410002000100020014B1868704700BFF2
S2140063E0A01200200F207047082808B50DD004DC46
S2140063F00138012809D90E2013E020280AD04028A9
S214006400F9D100230422194602E004220023114693
S214006410184603E0042200231146012002F0D6F9B4
S214006420002008BD08B501213A2001F05FFBFFF708
S21400643025FFBDE8084000F005B801213A2001F02C
S21400644055BB00002DE9F047434D88B001AC0FCD99
S2140064500FC495E80700012584E8070001213A20CB
S21400646001F044FBDFF8FC800121282001F03EFB10
S2140064703A4B404601A903938DF8125002F024FCD3
S2140064802B4604220021022002F0A0F92A462946C3
S2140064900023022002F09AF902212B460846042225
S2140064A002F094F9042203212B46022002F08EF912
S2140064B04FF002132A4C0226C4F83036A3F5803378
S2140064C0C4F82C361C230827C4F8346604F5005A92
S2140064D0C4F81C364FF4487003F00AF804F58059E7
S2140064E01420CAF8707003F003F82320C9F87070FF
S2140064F002F0FEFFB9214046CAF8707002F044FC74
S214006500002330461A461946C9F8707002F05EF944
S214006510002329461A46304602F058F92B463146E3
S2140065203046002202F052F92B4600220321304664
S21400653002F04CF9404602F017FB00212820C4F870
S2140065403016C4F82C16C4F83416C4F81C1601F01D
S214006550CDFA08B0BDE8F08798FA010000127A007C
S21400656000C0035000C00550FEE7000008B500F06C
S2140065702DF8124B12498B4212D30020114B1249B0
S2140065808B4218D3FFF700FE186850F82240586870
S21400659040F82240013298688242F5D30C33EAE78D
S2140065A00022F8E71C6844F8220001325C68A24228
S2140065B0F8D30833E4E70022F8E700BF684102009A
S2140065C07441020074410200744102004FF400411D
S2140065D04FF0FF30124B134A10B59A60D3F888205C
S2140065E042F47002C3F888200F4A916601F1884190
S2140065F001F5005210664FF6DF7050660220C3F8B1
S214006600D000BFF34F8FBFF36F8F08244FF4403393
S2140066100648C0F88041D36004600B6110BD00BF1F
S21400662000ED00E0006000000090005000E100E097
S214006630014B1868704700BF2C110020084B1B6FD9
S21400664003F00703022B04D0032B05D0012B05D043
S214006650FEE7044B18687047034BFBE70348704798
S214006660008000502C11002030110020002D310138
S21400667008B5FFF7E3FF054B1B6FC3F30333013386
S214006680B0FBF3F0024B186008BD00BF008000505E
S214006690281100200048704700B4C404014B186855
S2140066A0704700BF30110020054B1860054B1B6F6C
S2140066B003F00703032B01D1FFF7DABF704700BFD3
S2140066C030110020008000500020704700487047BE
S2140066D0002D31014FF4004070474FF47A70704738
S2140066E0014B1868704700BF3411002000239B6AD6
S2140066F0B3F5C04F03D21968064A914203D000236F
S214006700037083607047012202709A689B6942603A
S214006710F7E700BF07B0CD5E30B50024A36A87B0A8
S214006720B3F5C04F054601910FD2012303A88DF89B
S2140067300C30CDE90444FFF7D9FF059B5B0504D573
S214006740A36A28461B6C0199984707B030BD000025
S21400675037B54E4B04461A781AB102221A7003B0A7
S21400676030BDCDE900220028F9D001251D7001F0CA
S2140067705CFE474B186016F0B1F9464B5A6E226124
S2140067809B6E454A63614FF40043936603F188436A
S2140067905968A16141499960196E2160596E61601E
S2140067A0196CA160596CE1603D49086C1864496C2D
S2140067B059644FF40051556691661A6E55043FD5DC
S2140067C03849CA68D407FCD45B6E5A043DD5364AAD
S2140067D0D36B13F0430FFBD1344B1A68531C3AD0DB
S2140067E04FF400139340324A13660423304C23665A
S2140067F04FF48063236600F0EFF801300BD000F012
S214006800EBF840F2011398421FBF4FF48043236613
S2140068104FF4004323661023254C684623664FF446
S214006820005323664FF0804323664FF4804301A94C
S2140068306366FFF771FF009B2366019B63668EE726
S2140068401C49CA68D007FCD4BEE71B4AD36B13F0BA
S214006850430FFBD1C0E7194B1B78002BC5D14FF473
S21400686080720D4B5A66164A52681AB94FF40011D8
S2140068700F4A11664FF400725A66124B5B68002B83
S214006880B3D14FF480020A4B1A66AEE7C11200205D
S214006890C4120020008000500090005055CEAC007E
S2140068A000C00054000004400000024C38110020D4
S2140068B000900044000004500000025CC01200205B
S2140068C000C0055000000650F8B5274D04462F7846
S2140068D0012F02D001232B70F8BD0028FCD000F059
S2140068E07BF80130214E0AD000F076F840F2011312
S2140068F0984204D01E4A7766D368DF07FCD44FF46C
S21400690000531C49B366CA6B12F04302FBD12168E0
S214006910194B196661685966A1681964E16859647B
S214006920A169C80748BF9A60144B1A6801320DD196
S214006930134A127852B913494968C90748BF1A6002
S214006940114A5268D20744BF01221A6022690F4BCF
S2140069505A6662699A6616F0DDF80D4B186801F003
S2140069606AFD0023B7E700BFC11200200090004078
S214006970000004400000024C008000443811002053
S214006980C012002000C005500000065000800050D5
S214006990C412002070B50024A36AB3F5C04F13D20A
S2140069A00B4E337813F0FD050CD10A48FFF7D0FEE6
S2140069B0AB6ADB69984704460648FFF785FF0CB9C3
S2140069C001233370204670BD4FF48174FAE700BF90
S2140069D0C0120020A41200201FB500239A6AB2F548
S2140069E0C04F04D340F2011005B05DF804FB126BF3
S2140069F0B2F5C04FF6D2012201A8CDE902338DF8D8
S214006A000420FFF773FE039BDB03EBD5029B1A0EF5
S214006A10E8D0012A03D1C3F307430A2BE2D90023A7
S214006A209B6A1B6B1B6C9847DEE7000005490A68EB
S214006A301318054883428CBF4FF0FF320B60104698
S214006A40704700BF3C110020008000202DE9F04F69
S214006A509A46564B85B01B7806460F461546DDF817
S214006A603C909DF844B0DDF85080002B00F08D80FF
S214006A70072A00F28C800E9B002B00F08880B9F16C
S214006A80000F00F08480129BB3F5006F7FDC0128B6
S214006A9002D1109B002B7AD0454B03EB05131B7BD2
S214006AA0002B76D0434C10220021684618F0D9F906
S214006AB004EB45141022002F59D13946204618F011
S214006AC0D0F943F210036380BBF1000F03D1E378E3
S214006AD043F00303E370374A0E9B02EB451CCCE9F8
S214006AE00193129B6901013BC3F30A009DF84C30E9
S214006AF0012E03F003034FEA836343EA001E535854
S214006B002D48CDF800A000EA03004EEA00035350DB
S214006B1041D113230CF1100ECCF80C309CE80F007A
S214006B208EE80F006FF00301DCF81C20109B61F369
S214006B309F02012FCCF81C20CCF8143003D1CCF8DF
S214006B401890CCF804300027194A290102EB0513E7
S214006B5042F80180159A28465A60694622469F6088
S214006B605E7301F0B5FE384605B0BDE8F08F002133
S214006B70204618F076F94FF444736380BBF1000F9B
S214006B80A9D1E37843F03003A4E70C48ECE70C48BF
S214006B90EAE70C48E8E7B8F1000FD4D19CF80230D9
S214006BA068F304138CF80230CDE700BF48140020C9
S214006BB0C8120020481300200F80FFF3028000F068
S214006BC0018000F0078000F038B5124B05461B78B0
S214006BD0DBB1E0B101F029FC0F4A00231146147B1B
S214006BE054B92B6001251A0101EB03131D738C5059
S214006BF001F021FC204638BD0133082B02F11002BB
S214006C00EDD101F018FC0548F5E70548F3E705481F
S214006C10F1E700BF48140020C8120020048000F0EE
S214006C20028000F0018000F0154B13B518680023B1
S214006C3001908DF8043001F0F8FB124B1C7824B15B
S214006C4001F0F9FB104802B010BD01221A7001F0E5
S214006C50F2FB0E4B01A81C731C7783F82C4083F8BC
S214006C603C4083F84C4083F85C4083F86C4083F8E3
S214006C707C4008238DF8073001F0F8FD2046E2E757
S214006C8004FB010048140020038000F0C812002016
S214006C9010B588B00E9C009207940D9C0246069490
S214006CA09DF8304005940B9C04949DF8284003946E
S214006CB00024CDE9013420460B462146FFF7C6FEE8
S214006CC008B010BD10B588B00F9C009207940E9CBB
S214006CD0024606949DF8344005940C9C04949DF856
S214006CE02C4003940A9CCDE901340B46012108464A
S214006CF0FFF7ACFE08B010BD0A4A08B512785AB1C4
S214006D0007280BD8084A02EB00131B7B43B100216F
S214006D1001F09EFD002008BD0448FCE70448FAE7A1
S214006D200448F8E748140020C8120020028000F04B
S214006D30018000F0078000F00A4A08B512785AB1C0
S214006D4007280BD8084A02EB00131B7B43B101212E
S214006D5001F07EFD002008BD0448FCE70448FAE781
S214006D600448F8E748140020C8120020028000F00B
S214006D70018000F0078000F00D4B1B7893B10728C8
S214006D8012D889B10B4B03EB00131B7B73B10A4B74
S214006D90DA6A012303FA00F010401ABF00200B70D5
S214006DA008707047054870470548704705487047A3
S214006DB048140020C812002000000450028000F092
S214006DC0018000F0078000F00B4A10B512780C46E0
S214006DD062B107280CD859B1084A02EB00131B7B96
S214006DE043B101F0C3FD2060002010BD0448FCE75D
S214006DF00448FAE70448F8E748140020C8120020C0
S214006E00028000F0018000F0078000F02DE9F843D2
S214006E10174B1F6D5B6D1F4000D5FEE70126002552
S214006E20144CDFF85480DFF85490374217D02368AC
S214006E30C8F850609BB1A168284601316268A1601D
S214006E409847637B012B0AD148B909EB45131A7B97
S214006E5060F341021A731A7F60F341021A77013514
S214006E60082D4FEA460604F11004DED1BDE8F8838B
S214006E7000000450C81200200020045048130020D0
S214006E8070B5044601250B4E04B970BD94FAA4F003
S214006E90B0FA80F005FA00F306EB001224EA0304C9
S214006EA05368002BF0D0117B11B191689847EBE73F
S214006EB09847E9E74C14002008B5192001F0BEFAFF
S214006EC028B14FF00072074BC3F880211A601A20D1
S214006ED001F0B4FA28B14FF08062024BC3F880216B
S214006EE01A6008BD00E100E038B505460C4601F022
S214006EF09CFA0022044B03EB05135C601A73BDE892
S214006F00384001F098BA00BF4C140020074BD3F865
S214006F102404D3F8202403F50053104000F0553025
S214006F2020F05020C3F82004FFF7AABF00C003508B
S214006F30074BD3F82404D3F8202403F5005310405D
S214006F4000F0AA3020F0A020C3F82004FFF798BF76
S214006F5000C0035038B141B1013AB2F5006F0448A1
S214006F6038BF00207047034870470148704700BF8D
S214006F70037000F0027000F038B504460D4601F0CC
S214006F8054FAA3889BB223B92B6001F054FA064842
S214006F9038BD142263889BB202FB034408342C607D
S214006FA001F049FA0020F3E70B7000F01FB5044625
S214006FB00B46C07EE17F002B39D00123042201F06E
S214006FC005FC0123022294F82010207F01F0FEFB2E
S214006FD094F83530022B19D10023012294F82110A1
S214006FE0607F01F0F3FB0023042294F82210A07FB8
S214006FF001F0ECFB012394F8212001931146607FF9
S214007000009301F08BFB002004B010BD032BFAD1D7
S2140070100023012294F82110607F01F0D7FB0023A3
S214007020042294F82210A07F01F0D0FBEBE71A466A
S214007030039301F0CBFB039B94F820101A46207FA5
S21400704001F0C4FB94F83520039B022A12D11A469D
S21400705094F82110607F01F0B9FB039B94F822108E
S2140070601A46A07F01F0B2FB039B94F821200193FF
S2140070700123C3E7032AC6D11A4694F82110607F7D
S214007080039301F0A3FB039B1A46CAE7F8B5044630
S21400709016460F4601F0C9F9A388E2889BB29A42C9
S2140070A0054605D80023336001F0C5F91748F8BD3A
S2140070B01422238807F1100C9BB202FB03433A46C6
S2140070C00833174603CF6745186059603A4603F100
S2140070D00803F6D1142238681860238828469BB225
S2140070E002FB0343083333602388E2889BB20133F4
S2140070F0B3FBF2F102FB11339BB22380A38801336A
S2140071009BB2A38001F097F90020D0E70A7000F048
S2140071107FB5012380F8313090F83630ABB9836BF9
S2140071200268013383630C4B04900393002302939D
S2140071304B683C320193012300930B680169806819
S214007140FFF7A6FD07B05DF804FB022BE7D000238F
S21400715080F83130F6E700BF1973000090F835303C
S214007160022B10D114223023417F90F8210013FB0C
S214007170012303F1A04303F570331B6823FA00F0E4
S21400718000F001007047002070470000002313B590
S2140071901D4A52F8044B94F8211081420ED0013358
S2140071A0042BF6D102B010BD0028FBD19DF80730A5
S2140071B0002BF7D0A068FFF79FFDF3E794F8353073
S2140071C0022BEFD12046FFF7C9FF637E2076022B05
S2140071D0E8D194F8323003F0FF02002BE2D1A06829
S2140071E00DF107018DF80720FFF7C6FD237E1BB1C2
S2140071F094F83330002BD7D00023A06884F83330BF
S214007200FFF79AFDCEE700BF4C160020104930B5B8
S2140072100B78104A2BB9C2E90033C2E902330123C6
S2140072200B700C4C0023214651F8045B854208D0B5
S2140072300133042BF8D1002154F8043B1BB942F863
S2140072402100002003E001310429F5D1024830BDB9
S2140072505C1600204C160020027000F010B50446A4
S214007260FFF7E2FC002104F10800FFF7ADFC014641
S21400727020B904F10C00FFF7A7FC00B1004810BDD0
S2140072800E7000F008B590F8363083B90422036813
S2140072905A619A699207FCD541F21C621021037963
S2140072A05B0103F1A04303F57033995008BD022B30
S2140072B0FCD10068036CDB074CBF0521062101F0FA
S2140072C011FA0222014BC3F8C020EFE700D40350A6
S2140072D038B504460D4601F0A8F8A3889BB223B93A
S2140072E02B60BDE8384001F0A6B8142263889BB234
S2140072F002FB034308332B606388E2889BB20133AA
S214007300B3FBF2F102FB11339BB26380A388013B0F
S2140073109BB2A380E5E70000F7B51446D06A01A942
S214007320FFF72AFEA36BA36B013BA363144B9842A3
S21400733020D00026019B1E619E6001F076F8019A1F
S2140073400546D76827B1D2E9002331462046B8471C
S214007350E06A01A9FFF7BCFFE06A83889BB263B1CD
S21400736001A9FFF709FE20460199FFF7D1FE28463E
S21400737001F061F8012003B0F0BD84F83130F6E783
S2140073800B7000F0F8B505460E461746FFF7E2FD0F
S214007390002868D1152001F05FF80446EA6A938851
S2140073A09BB213B195F83230E3B195F83630F3B9A5
S2140073B02B689C6904F002041CB92846FFF762FF9C
S2140073C00024012385F8343095F83630CBB937449D
S2140073D0BE42286810D183699A06FCD51CB30024E7
S2140073E02046F8BD002CDAD0FFF710FDD6E7022BBA
S2140073F0E3D12B681C6CDDE716F8011B01F0CEFC10
S214007400E6E7022BEAD13744B742286806D142F2B3
S2140074102003026C33EA0202FBD1DFE716F8011BF9
S21400742001F065F9F0E795F836306BB942F21C6268
S21400743010212B795B0103F1A04303F570339950BB
S21400744008222B685A61CBE7022BC9D12868036C47
S214007450DB074CBF0921214601F044F90222034B09
S214007460C3F8C020BCE70446BAE700BF00E40350F8
S21400747010B5044680B190F832302BB9FFF76EFE97
S21400748010B9A068FFF738FC002094F832300133BA
S214007490DBB284F8323010BD0048FCE7027000F022
S2140074A010B50446A0B190F832309BB190F8323057
S2140074B0012B05D1FFF752FE10B9A068FFF73CFC80
S2140074C0002094F83230013BDBB284F8323010BD35
S2140074D00148FCE70148FAE7027000F0057000F08A
S2140074E037B590F835500446022D1DD1012290F88C
S2140074F02230457E817F9A403020164B25B900FB0E
S214007500013342F2100105E0012D07D100FB0133E3
S21400751041F210015A50002003B030BD247E00FB1B
S2140075200133002CF4D1ECE7012DF4D1037E73B9BE
S21400753011238DF80730FFF79BFF2A4620460DF1F2
S2140075400701FFF71FFF2046FFF7AAFFE3E7132315
S214007550EFE700BF00C003502DE9F0410446734F2B
S21400756088B001AE0D460FCF0FC697E8070086E835
S2140075700700002C00F0D88025B96D4E304608B0C4
S214007580BDE8F0815C220021204617F06AFC204608
S214007590FFF73CFE06460028F0D12B7D84F83530F8
S2140075A02B6884F8360023602A7B2271614A934256
S2140075B040F09E80282363625F4B23614FF4802354
S2140075C000266361D5E90723A2621680568096805E
S2140075D084F83060E3621E805E809E806B6884F86C
S2140075E031600393EB8984F83360ADF814302B8A4E
S2140075F00121ADF81230AB7C3A208DF81030EB7CD0
S214007600DFF848818DF8163005238DF8113000F02C
S2140076106DFA0121606A00F069FA286801A98DF800
S214007620046001F0CFFA14222B7B08EB4313C3F857
S2140076301C262E7AA87A46EA0042C3F83426697ACF
S214007640EA7A41EA0247C3F82C76E676E0772177B5
S21400765084F820206B7D01216377AB7D204684F87B
S2140076602130EB7DA3772B7E84F82230FFF79EFC3B
S2140076700646002882D100F0D8FE2B7D0746032B55
S21400768041D141F21C6202212B7B08EB431848F8DB
S214007690021004212A685B0102F58052D165297E1A
S2140076A0EA7D03F1A04342EA014203F57433C3F8CE
S2140076B02826A97D6A7D42EA0142C3F824264FF0B7
S2140076C0FF32286800F500539A642B7D032B0CBF0D
S2140076D00521042101F038FA4FF440622B68204659
S2140076E05A61FFF7BBFD0646384600F0A4FE45E7A4
S2140076F0124A93427FF441AF29236362104B236101
S2140077004FF4A0235CE7022BD9D194F821000D4951
S214007710FFF7EAFBFFF7D0FB4FF400732046238306
S214007720A676FFF7DDFECAE7074E27E708FB01004F
S214007730037000F000C00550020004000000065070
S214007740020005008D710000027000F000C00350BA
S214007750F0B587B004461646FFF7FCFB054658BB57
S2140077600493194BCDE90116059394F83630039629
S2140077702BBB23689B6903F0020313B92046FFF76F
S21400778081FD6A46E06A01A9FFF780FC054698B9C4
S21400779094F8313083B900F048FEE36A06469B88C9
S2140077A09BB233B120460099FFF7B2FC012384F860
S2140077B03430304600F03FFE284607B0F0BD022BBE
S2140077C0DCD123681B6CD6E7017000F0044BD3F8BD
S2140077D08420D206FBD4D3F88400C0F3811070470F
S2140077E00040005038B5104B0546D3F820310C4603
S2140077F003F00303022B0BD0032B0DD0012B0FD16C
S214007800FEF716FF052305B1286004B1236038BDD6
S214007810FEF744FF0323F6E7FEF758FF0223F2E7DE
S21400782000231846EFE700BF0080005073B50D46F2
S21400783000210E4B0191D3F88041064604F0030464
S214007840012C09D0022C0CD00C460EB1019B3360E3
S21400785005B12C6002B070BD01A8FFF7C3FF0F246E
S214007860F3E7FEF733FF0190EFE700BF008000501C
S21400787038B5174B0546D3F824310C4603F00703FA
S214007880013B052B20D8DFE803F0030F171B0B1373
S214007890FEF7CEFE052305B1286004B1236038BD8F
S2140078A0FEF7C6FE0623F6E7FEF7F8FE0323F2E72A
S2140078B0FEF7F4FE0423EEE7FEF708FF0223EAE7EE
S2140078C0FEF702FF0723E6E700231846E3E700BFBC
S2140078D00080005038B5104B0546D3F840310C46B2
S2140078E003F00303022B0BD0032B0DD0012B0FD17B
S2140078F0FEF7F0FE092305B1286004B1236038BD09
S214007900FEF7EEFE0823F6E7FEF7E7FE0B23F2E7A8
S21400791000231846EFE700BF0080005038B5134B31
S2140079200546D3F800320C4603F00703013B032B51
S21400793018D8DFE803F0020A0E12FEF7CBFE092382
S21400794005B1286004B1236038BDFEF7C9FE0823E0
S214007950F6E7FEF7C2FE0B23F2E7FEF789FE0E23DC
S214007960800AEDE700231846EAE700BF00800050D3
S21400797038B5104B0546D3F840320C4603F00303E7
S214007980022B0BD0032B0DD0012B0FD1FEF7A2FE3E
S214007990092305B1286004B1236038BDFEF7A0FEB8
S2140079A00823F6E7FEF799FE0B23F2E700231846B6
S2140079B0EFE700BF0080005038B5104B0546D3F8FF
S2140079C060310C4603F00303022B0BD0032B0DD0C3
S2140079D0012B0FD1FEF77EFE092305B1286004B106
S2140079E0236038BDFEF77CFE0823F6E7FEF775FE3B
S2140079F00B23F2E700231846EFE700BF0080005095
S214007A0010B40D4C0B46D4F8204204F00304012CAD
S214007A100AD0022C0CD008B1002101600BB1002264
S214007A201A605DF8044B70475DF8044BFFF7DABE4A
S214007A305DF8044BFFF74EBF00800050B0F5207F86
S214007A401FD009D8B0F5007F15D003D868B1B0F5BF
S214007A50C07F0AD000200CE0B0F5607FFAD10B4B57
S214007A60D3F88000C0F3011003E0084B186FC0F392
S214007A70033001307047054BD3F89000C0F3046024
S214007A80F7E7024B186FC0F38020F2E70080005043
S214007A904FF400320E4B014610B500209A66FFF7F1
S214007AA0CDFF41F6713248430A490B4B88428CBFE2
S214007AB04FF480100020DC69DA639A6822F44012E2
S214007AC002439A60E20344BF0022DA6310BD00BF9F
S214007AD000900050005A62020000035008B5FEF7FE
S214007AE0D9FDBDE808400021FFF7D2BF420910B516
S214007AF010D0012A10D00B4B0B4C022A18BF23467D
S214007B0000F01F0051B103F58053012202FA00F085
S214007B10186010BD1346F3E7044BF1E703F5005376
S214007B20F3E700BF68800050608200506480005019
S214007B301FB5002380280446019371D02AD8002858
S214007B4072D0A0F12004412C32D8412C30D8DFE886
S214007B5004F06B6E6B6E7D7D7D7D6E6E873C9D62E8
S214007B603C6E6E6E2F2F2F2F2F2F82546E6E6EA7A9
S214007B70A26E2F2F2F2F2F2F2F2F2F2F2F2F2F6B22
S214007B802F6B6B6B7D2F2F2F2F2F2F2F2F2F2F2FFE
S214007B902F2F6B6BB0F5806F58D021D8B0F5007FD3
S214007BA04FD008D8B0F5807F5FD0B0F5C07F3BD00F
S214007BB0019804B010BDB0F5607F42D0F8D8B0F59B
S214007BC0207F34D0B0F5407FF2D1FEF751FD02465B
S214007BD04FF42070FFF732FFB2FBF0F0400821E0D0
S214007BE0B0F5C06F52D00DD8B0F5A06F33D0B0F559
S214007BF0B06F35D0B0F5906FDAD1002101A8FFF74D
S214007C0037FED5E7B0F5E06F45D0B0F5F06F47D05A
S214007C10B0F5D06FCCD1002101A8FFF77FFEC7E7F3
S214007C20FEF70CFD0190C3E7FEF722FDFAE7FEF72C
S214007C301FFD02464FF42070FFF700FFB2FBF0F086
S214007C40F0E7FEF7FBFC02462046F5E7002101A818
S214007C50FFF7C8FDACE7002101A8FFF7D1FEA7E7B4
S214007C60002101A8FFF7E2FDA2E702934FF0E02310
S214007C701B695B0705D5FEF7FBFC0290029B019390
S214007C8096E703A902A8FFF725FEF7E7002101A85B
S214007C90FFF720FE8CE7002101A8FFF769FE87E7C3
S214007CA0002101A8FFF788FE82E7000008B58020C3
S214007CB0FFF73EFF034B98429EBF4FF48032024BC5
S214007CC01A6708BD005A620200A000501FB50023C4
S214007CD0B0F5807F019377D028D8382800F09480BC
S214007CE00BD82438092810D809280ED8DFE800F069
S214007CF0676767670D0D620D377D52285FD008D81D
S214007D003D283BD03E2800F08480019805B05DF801
S214007D1004FB8028F9D1414B1B6F03F00703013B9E
S214007D20032BF2D8DFE803F044413F6CB0F5D06F88
S214007D305BD019D8B0F5A06F66D00AD8B0F5806FC2
S214007D403DD0B0F5906FE0D1002001A9FFF790FD7F
S214007D50DBE7B0F5B06F2DD0B0F5C06FD5D1002001
S214007D6001A9FFF7B7FDD0E7B0F5006FECD00AD851
S214007D70B0F5E06F4DD0B0F5F06FC6D1002001A988
S214007D80FFF71AFEC1E7B0F5086FBED1234BD3F854
S214007D90003103F00303022B2CD0032B2ED0012B33
S214007DA030D1FEF77BFC032300E005230193ACE70C
S214007DB00223FBE7002001A9FFF738FDA5E7002016
S214007DC001A9FFF70FFDA0E702934FF0E0231B6920
S214007DD05B0705D5FEF74CFC0C230393039BE5E7F6
S214007DE003A902A8FFF776FDF8E7002001A9FFF730
S214007DF095FD8AE7FEF774FC0823D7E7FEF764FCD8
S214007E000723D3E70123D1E7002001A9FFF7F8FDF8
S214007E107BE7002001A9FFF7ABFD76E70080005066
S214007E2070B504468020FFF751FF032800F08280DB
S214007E304FF40022444B02215A6645F60E03434A8D
S214007E40C2F88030424B9962012103F58053996253
S214007E50936DD903FCD4D4E900131B0543EA0163F0
S214007E60E17B94F822500B43217B94F8236043EA8D
S214007E700143617B43EA0133A17B43EA811313612B
S214007E809169D4E904031B0643EA806301F00041CC
S214007E900B43A17EE07E0B43217E43EA0143617ED5
S214007EA043EA01239361E369126A002B0CBF0021A9
S214007EB0082122F00D0242EA030242EA8002234B26
S214007EC042EA01021A6294F820204FEA421232D1A6
S214007ED0986A94F8211020F0330042EA0112024317
S214007EE042F001029A621B4A996D32EA0101FBD107
S214007EF0022217498A621A659A6D5200FCD41869E4
S214007F00A26820F4700040EA02504FF00042186168
S214007F100F4B9A611DB9022203F580539A6216B977
S214007F2001220D4B9A6294F824301BB1074B0B4A82
S214007F30C3F8802070BD996A21F0330131430A43AB
S214007F4042EA4502EEE700BF0090005000C0005035
S214007F5000D000500300014000E00050F1A7FFFFF2
S214007F60014B93F9000070475D160020F0B5D0E98C
S214007F7001434FF480061A4A4178057856664FF456
S214007F80D156022702F5B8325662164E4F29776050
S214007F904FF0010728BF4F2106F580567760166917
S214007FA0F603FCD441EA052151611B01417B43EAFB
S214007FB004230B43017B43EA41039360C37B817B2D
S214007FC01B0143EA4113417C0B43017C43EA410316
S214007FD05360837C13B16FF4D1535362F0BD00BF7E
S214007FE00090005000100250014B1880704700BFF0
S214007FF0401100200029CCBF01210021FFF748BD19
S214008000B0F5207F10B50C4642D008D8B0F5007FFA
S21400801033D003D888B1B0F5C07F0ED010BDB0F510
S214008020607FFBD11F4B013CD3F8801021F030015C
S21400803041EA0414C3F88040F0E7FFF74FFD00F074
S21400804035F84FF48031184A164B1167196F013C0A
S21400805021F4704141EA04341C67FEF709FB04462C
S214008060FFF7B4FBC0F102012046FFF7C3FF00F0A4
S21400807023F8BDE81040FFF719BE0A4B013CD3F8C1
S214008080901021F0F85141EA0464C3F89040C5E727
S214008090044B013C196F21F4806141EA84241C677B
S2140080A0BCE700BF008000500090005002214FF453
S2140080B02070FFF7A5BF000008B54FF4C070FFF7AB
S2140080C037FDBDE80840044988428CBF02210121E3
S2140080D04FF42070FFF794BF80F0FA02B0F5807F6F
S2140080E070B50C4600F0F88029D8382800F04B818F
S2140080F010D82438092816D8092814D8DFE810F034
S214008100DC00DC00DC00DC0013001300CD001300F4
S21400811047003301522800F0CF8005D83D2851D0C3
S2140081203E2800F0418170BD8028FCD18B1E052BB7
S21400813000F2B080DFE803F0AB99AE69AEA8B0F508
S214008140D06F00F0108132D8B0F5A06F00F01B8120
S21400815016D8B0F5806F00F0AF80B0F5906FE2D122
S214008160023C052C8CBF0021974B984A98BF195D9E
S214008170D2F8243123F007030B43C2F82431D2E7A8
S214008180B0F5B06F00F08980B0F5C06FCBD1083C79
S214008190032C8CBF00218E4B8C4A98BF195DD2F8F9
S2140081A0403123F003030B43C2F84031BBE7B0F580
S2140081B0006FD5D016D8B0F5E06F00F0F580B0F5BA
S2140081C0F06FB0D1083C032C8CBF0021814B7F4A56
S2140081D098BF195DD2F8603123F003030B43C2F851
S2140081E06031A0E7B0F5086F9DD1CC1E052C8CBF82
S2140081F00021794B754A98BF195DD2F8003123F0FB
S21400820003030B43C2F800318DE700250226012147
S214008210022000F057F9FFF761FCFFF747FF4FF425
S21400822080316E4B694A1967136F23F00703334397
S2140082301367FEF71DFA0646FFF7C8FAC0F10201FB
S2140082403046FFF7D7FE0121002000F07BF9FFF74C
S21400825033FFFFF72BFD002D7FF465AF032C7FF473
S21400826062AF01225E4B9A625DE74FF400225B4BE1
S2140082700E465A66012203F540539D6A03F5805365
S214008280C5F340059A62C2E700250426BFE700252D
S2140082900126BCE700252E46B9E7022C03D0A4F140
S2140082A00F0044424441494BD3F8801121F00301AA
S2140082B00C43C3F8804136E7023C032C8CBF0021F8
S2140082C0484B424A98BF195DD2F8203123F0030389
S2140082D00B43C2F8203126E7A1F10804082C3FF62C
S2140082E022AF01A353F824F00D8300000D83000095
S2140082F0278100000D8300003B83000027810000DB
S21400830027810000278100000D8300004FF4803293
S2140083102E4B3549586E03F580535A660B6A43F068
S21400832001030B62C1035CBF304B5A664FF0E0227C
S214008330136923F004031361F5E64FF48032234BF0
S2140083402949586E03F580535A660B6A23F00103D9
S2140083500B62C3035CBF254B5A664FF0E0221369DD
S21400836043F00403E7E7083C062C8CBF0021204BB3
S214008370164A98BF195DD2F8003223F007030B4364
S214008380C2F80032CFE60F2C0CD0102C14BF002100
S21400839002210E4AD2F8203223F003030B43C2F820
S2140083A02032C0E60121F4E7083C032C8CBF0021F4
S2140083B0104B064A98BF195DD2F8403223F00303EB
S2140083C00B43C2F84032AEE64CFB01000080005082
S2140083D048FB010048FB010059FB010000900050DB
S2140083E000E0005044FB010000C0075000A0005011
S2140083F052FB010048FB01000028ABBF00F16040C3
S214008400054B00F5614000F00F00ACBF90F800038C
S214008410185C0009704700BF14ED00E0EFF3108011
S21400842072B6704700B962B67047EFF3118030231A
S21400843083F31188704780F311887047054B420913
S21400844053F8223000F01F0023FA00F0C04300F07B
S2140084500100704700E100E0014608B5EFF3108325
S214008460DB0702D50122104608BDFFF7E7FF0246EC
S2140084700028F7D10846FFF7BFFF0146EFF3118348
S21400848013B1B0EB131FEDD2074B5B68C3F30803C1
S214008490002BE8D0103B58B2FFF7AEFF88428CBFE7
S2140084A000220122DFE700BF00ED00E0034A017969
S2140084B0D36E23F030030B43D36670470040005062
S2140084C070470000F8B504461C4BD3F88420D1064C
S2140084D0FBD4D3F88430C3F381139C422CD0FEF730
S2140084E0ADF8012C064602D12146FFF783FDFFF7C3
S2140084F095FF4FF00072124B07465A662046FFF76C
S214008500DFFF4FF480630D4D621E93402B676B6E4A
S2140085109A0103D4D5F884309B060AD53846FFF76F
S21400852081FF022C08D13046BDE8F8400021FFF755
S21400853061BDD5F88430EAE7F8BD00BF00400050C2
S2140085400060005007B518B90191FEF777F8019959
S214008550064B1B7843B1064B984205D8012003B062
S2140085605DF804EBFFF7AEBF0220F8E75E160020CA
S214008570005A62024FF0004210B501244AF6CD318F
S214008580154B5A66154A03F50B2354605A6C19644A
S214008590224088B9996811F0010F114903D08C6008
S2140085A0D86AC007FCD501234B6012B10D4B0E4AAA
S2140085B01A6410F0ACFC10BDD96A0907FCD420215F
S2140085C0074B59620121A3F58053996005494B6A10
S2140085D09B06FCD5E9E700BF00900050005009500C
S2140085E000600950004009503254FFFF4FF000422F
S2140085F038B5194B194C5A66012203F50C235A60FC
S2140086004AF6CD33656C2364437815409340134394
S214008610134AD363A368827823F0740343EA0213F1
S214008620C278002A14BF042200221343A3600279F2
S214008630837943EA022323614279C37943EA02231A
S21400864063610078FFF796FF0DB1064B236410F0C8
S2140086505EFC012038BD00BF00900050004009506D
S214008660004000503254FFFFC36C0B42FCD17047F1
S21400867008B543680246DB0714D50A235021036376
S214008680FFF7F2FF136C9907FCD1936A012110469D
S2140086909362FFF7E9FF136C1B0604D4012302F56F
S2140086A00052536008BD536BF5E738B50C46012100
S2140086B0024600F58053596004F00F0540F2FF7142
S2140086C0FFF7D2FF78210563FFF7CEFF04F0010322
S2140086D0610748BF43F00203116C01F003019942A1
S2140086E0FAD138BD09B9FFF7C3BFFFF7DEBF036C89
S2140086F05B06FCD5C163704770B5054614460E464A
S214008700FFF78CFE296881EA040202EA06044C4060
S2140087102C60BDE87040FFF785BE0000072AF7B55D
S21400872001F0030614461F464FF003012CD89500AF
S214008730A94000FA05F21C480191FFF7DDFF0199F8
S2140087401A4806FA05F2FFF7D7FF194B19499DF8A4
S2140087502000002F08BF1946012303FA04F40C601A
S214008760154B1649002808BF0B461C60144B9DF895
S2140087702400C3F820441031A3F6DC33002808BFD9
S2140087800B461C6003B0F0BDA2F10805AD00A94081
S21400879000FA05F20B480191FFF7AEFF01990A486F
S2140087A006FA05F2CFE700BF00C4035008C4035022
S2140087B010E4035010D4035014D4035014E40350B0
S2140087C000E0035004C403500CC40350F8B504463C
S2140087D00D461F4616464AB101238B403021194AE2
S2140087E001FB0022FFB141F21001535004EB440399
S2140087F0072D4FF00F014FEA031317D8A80006FA0B
S21400880000F2814010481844FFF776FF56B9012160
S21400881030230C4801FA05F503FB040077B141F25A
S2140088201003C550F8BD42F21001DEE7A5F10800BE
S214008830800006FA00F281400448E4E742F21003A2
S214008840EFE700BF00C0035004C003500CC0035045
S214008850044A054B002918BF1346012202FA00F00D
S21400886018607047402004504010045010B5012195
S21400887004462020FFF73AF901212120FFF736F9B8
S2140088800122114B5A60227812069A606178A2780B
S21400889042EA01429A61FF229A6200229A631A64AF
S2140088A04FF000425A654FF0FF324FF4001103F5C7
S2140088B000531A65054AC2F88011E3781B01DBB243
S2140088C082F81533116010BD0000045000E100E08E
S2140088D02DE9F04101250C46C3B2DFF888E0D1F857
S2140088E000809D408F7ACB7A94F80DC0097BCEF835
S2140088F050500EF5005E4EF820804FF0300E184EA9
S2140089001B050EFB006043EA074343EA415322F08F
S2140089100302C0F860C0C3650267FFF786FD736D8B
S2140089202B437365237A13B1336C2B433364637A1A
S21400893013B1B36B2B43B3632279A37943EA0243A3
S214008940084A93616179E37943EA014306498B61FA
S214008950034B55639D64BDE8F041FFF76CBD00BF57
S214008960000004500020045000100450F8B5012503
S214008970C3B204469D40FFF758FD3022094B1E6DDA
S2140089805F6B02FB04335C6EFFF755FD3D4206D17C
S214008990C4F30A1008B9354200D10130F8BD0020F2
S2140089A0FCE700BF000004504FF050234FF40032A5
S2140089B01A677047014BD3F8940070470040005088
S2140089C04FF0B0435A6812B19A6A002AFAD170473B
S2140089D0CB784A7810B55B010C7843EA82030A79B3
S2140089E0234343EA02130C22424302F1B0421363CC
S2140089F0012C02BF8A78024B43F8202010BD00BF2E
S214008A00E880035008B54FF0B0435A6802B960B129
S214008A105B680BB1FFF7D4FF4FF0B04130B10120D7
S214008A20074B5860FFF7CCFFC86008BDFFF7C8FFCC
S214008A300223CB60FFF7C4FF0122024B5A60F4E723
S214008A4000100058002000584FF0B0435B6870B527
S214008A500BB1FFF7B5FF0121104B457859608378BD
S214008A600679002BC37814BF02240024002B14BF01
S214008A70042200224379DB0043EA06132B432343F8
S214008A8013434FF0B0429360054B59600378002BB8
S214008A9014BF0B460223D36070BD00BF00200058F1
S214008AA0001000584FF48032064B5A6603F5E62352
S214008AB05B69C3F38512827003F03F021B0B4270A2
S214008AC0037070470090005070B5054616461C4669
S214008AD021B94FF42070FFF72BF80146402C1BD02D
S214008AE003D8DCB1202C1BD070BD602CFCD1042335
S214008AF003FB06F2560806EB4113B3FBF2F3094AF2
S214008B00203B02EAC303AA6822F06002AA60AA68B1
S214008B101443AC60EB61E7E70623E9E71023E7E7D9
S214008B200823E5E7F8FF7F0038B50546144621B967
S214008B304FF42070FEF7FCFF014601396400B1FBDC
S214008B40F4F10902E96138BD012200F580535A604C
S214008B50CB43934003F00A034361416111B900F52A
S214008B600050426070470000012200F5805310B5A7
S214008B705A6040F6AA6341F20502436100230E499B
S214008B808360C365C26000F500520361C361C364BD
S214008B9091640A498365884202D0094CA04207D1F5
S214008BA08842036502D0064B984201D100234365F4
S214008BB00123536010BD00BFFFFF010000C0055039
S214008BC00000065070B50D46FFF7CEFF012300F5F6
S214008BD080567360AB7C04461BB1836843F08043C9
S214008BE08360EB7C5BB1354A2B7D944245D1A2F580
S214008BF01032C2F88C31E36D43F08003E3652A8AB5
S214008C006B7B20461343EA891343E3602B7BD5E94D
S214008C100112FFF759FF6B7D1BB1A36843F4803345
S214008C20A360AB7D1BB1A36843F40043A360EB7D58
S214008C302A7E1B07120502F4E00203F0E04313430A
S214008C40A365697E1D4A8B1E012B1D4B1FD89442BF
S214008C501BD002F5804294420CBF01224FF0FF3237
S214008C6003EB4213022041F21C620329985020D1E4
S214008C700423F3652B78636170BD124A944204BFE7
S214008C80A2F52032C2F89C31B5E70022E8E794420C
S214008C900DD00C4A94420CBF01224FF0FF3203EB7A
S214008CA04213022042F21C6201299850DFE700229C
S214008CB0F5E7042204F50053DA65DBE700C005504B
S214008CC000C003500000065038B50D46FFF74CFFB5
S214008CD00122A97B00F580535A602A8A83680029FE
S214008CE014BF4FF48061002142F0010213432A7D35
S214008CF00B43002A14BF4FF00052002283608368A3
S214008D00044613438360AB7C5BB11D4AEB7C904208
S214008D102DD1A2F51032C2F88C31E36D43F08003FA
S214008D20E3652B7B2046D5E9011243F48053E360CC
S214008D30FFF7FAFE6B7B0BB1102363616B7D1BB1F3
S214008D40A36843F48033A360AB7D1BB1A36843F4F0
S214008D500043A360EB7D2A7E1B07120503F0E04369
S214008D6002F4E0021343A3652B78636138BD054A1D
S214008D70904204BFA2F52032C2F89C31CDE700BF76
S214008D8000C005500000065083695A06FCD5C16332
S214008D9083699B06FCD5406AC0B2704783695B0650
S214008DA0FCD5C1637047000038B50446054D10F089
S214008DB0D4F80FCC0FC594E8030085E80300002024
S214008DC038BD00BF6016002047F6FF739A42F0B524
S214008DD063D0022963D8334BCF0003EBC10013F8EE
S214008DE031108478012913D10025C3781B1B9D42BE
S214008DF002D3E018C0B2F0BD591B4668A3EB510180
S214008E0036F911609642D4BF0D4601F1FF33EEE706
S214008E1040680028EFD0B0F90010914204DBB0F9AA
S214008E2002109142B8BF114682883B44FF2A19BF00
S214008E30C8222826B0F90620B0F90860A2EB010285
S214008E400CBF0125002592FBF6F25F782A447B1EB4
S214008E50934228BF13464FF47A7E00EBC305AE68F4
S214008E60EA88AC4611FB02621E4622EAE272013331
S214008E7002F5FA729F42B2FBFEF204D9BCF80CC0AF
S214008E8008359445EBD200EBC6008088904228BF98
S214008E901046A04238BF2046ACE7FF20ABE70020D4
S214008EA0A9E700BF601600200229F0B553D82B486A
S214008EB000EBC10410F83110636801290FD1E07887
S214008EC0A478904294BFC4EB0001C4EB0201001BDF
S214008ED0CAB28242C8BF002233F91200F0BD002B8E
S214008EE039D0A178914202D3B3F90200F6E7E178CF
S214008EF0B3F900009142F1D999886478A1F1FF0690
S214008F00013C714203F10405E4B2714103F10C0720
S214008F101FFA82FCCEB2B44216D805EBC1014FF45C
S214008F207A756A43B1F902404968521A04EBD47163
S214008F3002EB610292FBF4F29042CFDBB3F902003F
S214008F409042CBDC10B2C9E737F831E04E1CE6455C
S214008F50E3D33146DEE70248C0E700BF60160020D4
S214008F600080FFFF08B50448FFF71EFFBDE8084075
S214008F7001200FF0F4BF00BF60FB010000487047FF
S214008F804211002007B56B46054A1068516803C3B6
S214008F906846FFF72BFB002003B05DF804FB00BF1C
S214008FA0E4FB010013B50024064A6846536F43F0FD
S214008FB00103536700948DF80440FFF777FA2046C4
S214008FC002B010BD0040005030B58BB06C46154D59
S214008FD00FCD0FC40FCD0FC495E8030084E803003F
S214008FE0114BD3F84C21120314D4D3F85041E4B2F9
S214008FF08DF81940FEF7B4FF204480F308008DF882
S21400900018000A48FDF750FB6846FEF709FF0020E7
S2140090100BB030BD064B1C884FF6FF739C4208BF52
S2140090207824E5E7ECFB01000080E00F00F0490241
S2140090300001E00F30B5094D87B001AC0FCD0FC46D
S2140090402B6801A8236025238DF80530FEF78EFFD8
S2140090506420FEF7C9FF002007B030BD14FC0100F5
S2140090606FF00402502110B50A480B4C12F0800F26
S214009070D3B21BBF03F00F03043BA3181B1802F167
S21400908001020CBF83F800131976402AEED10020A7
S21400909010BD00BF00ED00E000E100E030B50F4C71
S2140090A041612368ABB92060836011E0891A9A6831
S2140090B01D4641612AB113465A698A42F6D955B10E
S2140090C01A461346A860836013B15A69511A59614B
S2140090D030BD0025F0E72060F5E700BF90160020C1
S2140090E010B500F069F90A4C0A4B19682368C31AD0
S2140090F001B10BB9206010BD4A699A423ABF9B1A6B
S2140091000022D21A4A6128BF00238968F0E700BF10
S2140091107C1600209016002038B5134D2B685B692E
S21400912093B1124A022014681C4400F07FF92046CE
S21400913000F04AF900230E492A680B70D088800791
S21400914009D501230B7038BD022000F06FF902200C
S21400915000F090F9EEE79268002AF4D050690344D4
S214009160012BEBD9EFE700BF901600207C160020FD
S2140091708416002000220C490B687BB183420AD17A
S21400918083687AB1936083681BB15A6941690A445F
S2140091905A61002070471A469B68EEE70028EFD019
S2140091A0022070470B60EEE79016002070B5FFF7C0
S2140091B03CF9144E05463478FCB9134B1C60134B2F
S2140091C01C60134B1C8000F0B5F8012000F02EF94F
S2140091D000F072F90F4B0246186020B92846FFF7D8
S2140091E02AF9232070BD234640F2E7310A4815F0DD
S2140091F029FC0A4B1860012333702846FFF71BF939
S2140092000020EFE778160020901600207C1600203D
S214009210861600208C16002018FCFFFF8016002003
S214009220C2072DE9F34704460BD53F4A138801339E
S2140092309BB21380FFF754FF3C4B1B680BB1FFF744
S2140092406BFFA3076DD5FFF7F0F8002605463746F7
S214009250FFF746FFB146DFF8D480D8F800400CB1DF
S21400926063698BB10022324B012F1A7002D1022E95
S21400927008BF1F70002C44D0FFF74EFF284602B0F0
S214009280BDE8F047FFF7D7B823461A79217991420F
S21400929088BF1C469B6813B15A69002AF5D0284639
S2140092A0FFF7C9F8256985B300F086F8A269861A23
S2140092B0F317B54279EB030328DA23691344A36155
S2140092C00123226982B17BB9A91B0191FFF7ADF892
S2140092D0824601992046FFF7E1FEA36922695046BF
S2140092E01344A361FFF7A7F8E368E688013713B1D4
S2140092F0204621689847FFF798F80546FFF7F0FEE6
S214009300ABE7022000F09EF8B8E72E46FFF78DF890
S21400931082462046FFF72EFF5046FFF78CF80023C4
S214009320CFE702B0BDE8F087861600209016002032
S214009330881600201FB500241C4B012118689A8847
S2140093400290D3F806009B7A00903E20ADF80C20E1
S2140093508DF80430FEF7CAFB02A88DF808408DF899
S2140093600C40FFF771FB694601208DF80040FFF7BF
S2140093702FFB4FF0B04240F2FF31936923F47F7326
S21400938023F0030393610A4B5961936A13F00803B1
S214009390FBD113620120FFF735FB4FF48052054BDB
S2140093A0C3F880211A6004B010BD00BF28FC01007D
S2140093B00020005800E100E04FF0B0439A6A120720
S2140093C0FCD4186A7047000010B50446FFF726F86C
S2140093D04FF0B042936A1907FCD4136A116C5269B5
S2140093E0520604D4CA1A032A01D899420ED1E21AA8
S2140093F0022A98BFDC1CB4F1FF3F38BF013C4FF097
S214009400B0431C649A6942F040029A61FFF70AF87A
S214009410054A13783BB14FF0B041CB6B43F00203E3
S214009420CB630023137010BD4811002082074FF055
S214009430B04200F00103916948BF43F040030B437C
S21400944093617047820700F001030AD50121084A9C
S21400945043F0400311704FF0B041CA6B22F0030294
S214009460CA634FF0B0418A6922EA03038B617047F2
S21400947048110020830742BF4022014B5A617047C3
S2140094800010005810B5FEF7D0FF4FF0B04304466A
S2140094905B695A06074A03F0010003F0510348BF10
S2140094A040F002005361FFF7BBFE2046BDE81040C7
S2140094B0FEF7C1BF002000583E20FEF739BB08B5B6
S2140094C0FCF70CFFFCF73CFFFCF741FFFCF74CFFFA
S2140094D0BDE80840FCF74FBF08B5FCF75DFFFCF79A
S2140094E05CFFFCF75CFFBDE80840FCF759BF0000D6
S2140094F010B50446FDF7BCF80C4BA0F57A729A42FC
S21400950012D84FF47A73B0FBF3F05C43084BB3FB0E
S214009510F0F0B4FBF0F0022806D9BDE810400323B3
S214009520B0FBF3F000F00CB810BD00BFFFC99A3BCB
S21400953040420F0000000000000000000000000095
S214009540013800D0FCE7704703680174C0E90133B6
S214009550C3607047037CDB0701D5408A7047D0E9BB
S21400956001239B1A44BF428A9B1898B270472DE984
S214009570F04116460546FFF7EDFFB04228BF3046DD
S21400958086B20F46B046B8F1000F0FD15EB12B7C05
S214009590D90744BF23F001032B742B7C9A0744BFE2
S2140095A023F002032B743046BDE8F0816C8A2B68EA
S2140095B069681C44641AA4B2444528BF444627B1CF
S2140095C03846224615F026FC27446A682B68698AC6
S2140095D0224419448A4238BF1346A8EB04041FFAF3
S2140095E084F86B60CFE730B50346448AC5680068E8
S2140095F02044401B80B2824228BF024601B10D6063
S214009600D9681868114420448142D96024BF091BD8
S214009610D960D8685968884208BF197C104604BFCC
S21400962041F00201197430BD83688B420FD0428A24
S214009630036881601344994224BF891A8160D0E987
S21400964001329A4202BF037C43F001030374704761
S21400965038B54024094D22460021284615F001FC65
S21400966000230121064A1370064A1560064A118037
S214009670064A1380064B1C8038BD00BF2417002006
S214009680ED170020981600209E160020EE170020EA
S2140096909C160020002208B5114610460BF0E2F892
S2140096A0BDE80840FFF7D4BF002230B50C490D4D89
S2140096B00B78D4B2A3420BD8202B10D0094A22F83C
S2140096C02300002002EB8302013350800B7006E07B
S2140096D0013205EB820434F8044C8442E9D130BDF3
S2140096E0EC170020A2160020F0B50C4E33783BB1E4
S2140096F000210C460A4D013BCAB29A4201DB337088
S214009700F0BD35F822700131874208BF0124A71842
S21400971055F8277045F82270EEE700BFEC170020DA
S214009720A2160020002230B5084B1C78084BD1B298
S2140097308C4201D8002006E033F82250511C8542A6
S21400974002D103EB820030BD0A46F0E7EC1700209A
S214009750A21600202DE9F04100F02EFA002840DD88
S214009760744C754E21883388744F994228BF194629
S214009770386800F007FADFF8E4813A68B8F8003095
S21400978081B212FA80F213FA80F0A8F8000020885E
S2140097903388401A80B25B1A01283A6020803380F2
S2140097A005D1674B1B78022B01D100F0E9F925881B
S2140097B00DB13388ABB9624A1378012B15D0022B52
S2140097C02DD0C3B95F4B1B78012B06D0022B0AD0D5
S2140097D08BB9BDE8F041FFF73BBF0323238001238D
S2140097E01370BDE8F0810423F8E7564B1978012979
S2140097F005D002290CD0BDE8F041FFF74BBFDB785F
S214009800238023884BB90122B8F900104D4843E065
S214009810D9781B7941EA0323F2E70223E0E7494CB3
S21400982045B10022402120460BF01CF840233C6046
S2140098303380D6E7284600F0A3F92378012B42D1DF
S21400984040F63142B4F80130934228D040F6334215
S21400985093423ED040F63542934234D18122294687
S214009860394815F0FEFAE278374E812A03D830469A
S214009870211D15F0CFFA00243778344DE3B29F420D
S21400988042D8334B2A78B3F803309A424FF000029E
S2140098901146104688BF2B700AF0E4FF99E7E2787D
S2140098A02C4B012A08BF22791D7008BF1A701B783E
S2140098B04BB91946254A2848137000EB830201333A
S2140098C0202B5180F9D131880122C1F1400109B223
S2140098D09CE7E2781E4B072A1D60C3F8035005D1AB
S2140098E060682189A27A186099809A71B3F803207B
S2140098F0164B19481A700023194600EB83020133F1
S214009900202B5180F9D1DEE73B1906EB4303B3F871
S214009910018006EB4403B3F80100FFF703FF18B11C
S2140099204288A2EB080242802B78013443442B7015
S214009930A4E700BF9E1600209C1600209816002064
S214009940ED170020241700206B1700209416002027
S21400995064170020A0160020A2160020EE17002094
S21400996070B5C2B00A4606460D460146684615F072
S21400997051FA9DF80030042B51D19DF80130032B8D
S2140099800FD19DF809309DF8080000EB032080B247
S214009990FFF78AFE3046A9B242B0BDE8704000F03C
S2140099A01FB9052B13D00E2BF4D141F20202BDF8DD
S2140099B00430934229D19DF8113063F01F038DF8CF
S2140099C011302A466946304615F024FAE2E79DF83B
S2140099D009309DF8084004EB0324A4B22046FFF7A4
S2140099E0A1FE70B1204A4188137820460B44DBB2B2
S2140099F01E491370B1F803108B4288BF1170FFF731
S214009A0073FE002003F090FBC4E740F6314223F0DB
S214009A100203934204BF00238DF80630D1E7022BE1
S214009A20B8D1134B1B78002BB4D0104B1B889D422B
S214009A3015DCBDF80100FFF775FE10B14388013351
S214009A404380094A14782CB1631EDBB21370002BD6
S214009A50D7D10124012003F067FB002C9AD14FF0E8
S214009A60FF3042B070BD00BF94160020641700207F
S214009A70A016002008B5FFF7EBFDBDE8084000F093
S214009A802FB8000013B5074C01A92068428A520877
S214009A90FFF7A9FD20680199FFF7C6FD012002B077
S214009AA010BD00BFF417002037B50025094C6946E5
S214009AB0C0680095FDF788F92A4601A92068FFF7D7
S214009AC092FDDDE900312068C91AFFF7ADFD03B04D
S214009AD030BD00BFF417002008460AF06DBF000036
S214009AE070B5184C184E86B000212046FFF72CFDA6
S214009AF03460FCF771FC154B18604FF40041144AB3
S214009B00116030680021448A1D6864082246FFF709
S214009B106AFD33680F491A680023CDE903310593BF
S214009B200123029401932B68243300936969E86843
S214009B301319FDF7C7F80521074806B0BDE87040C1
S214009B40FFF702B84C110020F4170020F017002091
S214009B5000E100E0859A000000000650064B9B6C72
S214009B605A0703D50422054B9A6470471B07FCD599
S214009B700822024BF8E700BF0000065000200650FF
S214009B807047000037B504460191FEF74EFC0546C7
S214009B90074B1868FFF788FF2846FEF74CFC054B76
S214009BA02146019A1868FFF7E2FC03B030BD00BFFB
S214009BB0F0170020F417002010B5FEF736FC044618
S214009BC0054B1868FFF770FF2046FEF734FC034B82
S214009BD01868FFF7BFFC10BDF0170020F417002030
S214009BE037B504460191FEF720FC05460648214697
S214009BF0064B019A0068FDF7ABFD04462846FEF7C3
S214009C001AFC204603B030BDF0170020D99A000099
S214009C1038B50546FEF702FC0446284615F0E2F87D
S214009C202046BDE83840FEF7FDBB00000A4619B1E5
S214009C30024B00211B681847704700BF60110020C8
S214009C4010B50446006A10B1616AFFF7EFFF206A9C
S214009C50FFF7DEFF0020C4E9080010BD38B5044653
S214009C60FFF7EEFFE3692822012B0CBF05466FF0D5
S214009C7096050021204615F0F4F8284638BD000069
S214009C8037B50C4D0C462B78DB070FD500230A465C
S214009C900193014601AB281D00F02CFD20B9019B65
S214009CA0A34218BF6FF0930003B030BD6FF088007A
S214009CB0FAE700BF3818002008B500F045F8084B52
S214009CC00C211A78064812F0060F1CBF0022C3E9C2
S214009CD00122FFF7ABFFBDE8084000F027B800BF41
S214009CE03818002038B50F4D2B7813F0010213D129
S214009CF0C5E90122022262F342032B7000F018F835
S214009D00044658B900F010F8044638B92B7843F0EA
S214009D1001032B70204638BD0024FBE7FFF7CCFF7D
S214009D20F8E700BF3818002000F0E2BC70470000DB
S214009D30044A002092F8783043F0010382F8783025
S214009D40704700BF4418002038B501250A4C20464D
S214009D50E561FFF783FF04F128006564FFF77EFFE7
S214009D6004F15000E566FFF779FF94F878306FF35A
S214009D70000384F8783038BD44180020002070476F
S214009D80014B1868704700BF0040025C014B5868E2
S214009D90704700BF0010025C014B186B704700BF95
S214009DA00010025C014B1868704700BF0010025C90
S214009DB0014B9860704700BF0010025C014B1864AE
S214009DC0704700BF0010025C014B5864704700BF2C
S214009DD00010025C014B5863704700BF0010025C25
S214009DE00022014B1A6070470010025C024A13689A
S214009DF043F00103136070470010025C43F2040254
S214009E00014B1A60704700BF0010025C024A1368DC
S214009E1043F03003136070470010025C044B1A686E
S214009E2042F480721A601A6822F480721A607047D0
S214009E300010025C024A136843F4806313607047A4
S214009E400010025C034A136823F4702343EA0040C0
S214009E50106070470010025C044B1A6902605A6971
S214009E6042609A698260DB69C36070470010025CDA
S214009E700268044B1A6142685A6182689A61C26835
S214009E80DA6170470010025C024B1A6BD207FCD4F2
S214009E90186270470010025C82B01FB507930A9BD9
S214009EA004AC8B4228BF0B4604E907001048D100DB
S214009EB0079948BF03330160099948BF23F003039D
S214009EC023F0704301F0E041194341F000518160F6
S214009ED0002102F0E042019C134343F00053C160AE
S214009EE004618361416304B0BDE8104002B070476E
S214009EF00000025C3F22034B1A631022DA61032241
S214009F009A6370470000025C024AD36B9B07FCD43E
S214009F10704700BF0000025C034B986A10F02400F4
S214009F2018BF0420704700BF0000025C08B5FFF7AA
S214009F30F3FF064BDB6B23F47F4323F0EF0303436F
S214009F401EBF0122024BC3F8FC2F08BD0000025CB6
S214009F5000F0FF3F82B02DE9F0418AB005AE12F066
S214009F60804586E80700149C119333D1139B8C42DE
S214009F7028BF0C4613F080538846129A02D19442AA
S214009F8028BF144634B30F2C13D9DDE912018DE82F
S214009F9003000294119B96E80700FFF77DFFFFF78A
S214009FA0A9FFFFF7B1FF0AB0BDE8F04102B0FFF726
S214009FB0BDBF059E119F93B1A8EB0502042A3B681E
S214009FC028BF0422701909A90435099314F022FF4A
S214009FD0AC42F1D80AB0BDE8F04102B07047224664
S214009FE0394630460AB0BDE8F04102B014F012BF60
S214009FF008B5FFF7D1FE10F00E03FAD0022BF8D00A
S21400A00010F4806018BF062008BD000070B598B038
S21400A010002843D02C4C08AD0FCC0FC50FCC0FC575
S21400A0200FCC0FC594E80F0085E80F006D4604AE10
S21400A03004F1100320340FCB85E80F0094E80F00DE
S21400A04086E80F00FFF7EAFE0420FFF7FBFEFFF7A7
S21400A050D5FE3046FFF70CFF002408AE56F8040B7A
S21400A0600134FFF711FF102CF8D1FFF78FFE0328FD
S21400A070FBD90024FFF7B4FE2646FFF781FE55F80D
S21400A080043B01365840042E44EA0004F5D12CB1B6
S21400A090012206200D4B1A7018B070BDFFF7BEFEE9
S21400A0A00820FFF785FE0020FFF788FE0720FFF751
S21400A0B08BFE4FF40070FFF78DFE0820FFF7C2FE00
S21400A0C0FFF794FE0020E7E734FC0100C1180020EB
S21400A0D008B5FFF7A3FE0122014B1A7008BD00BFAA
S21400A0E0C018002030B589B005AC84E80700FFF73B
S21400A0F053FEC30501D5FFF7EBFF0A4D2B781BB1C6
S21400A100FFF776FF00232B70074B069AD3E9010171
S21400A1108DE8030002921B6894E80700FFF71AFF19
S21400A12009B030BDC018002094FC01001FB5FFF731
S21400A1305FFF044630B1012206240D4B1A702046FC
S21400A14004B010BDFFF71CFE0090FFF719FE01904B
S21400A150FFF716FE0290FFF713FE03906846FFF720
S21400A16087FEFFF7B5FFFFF751FEFFF763FEE6E752
S21400A170C118002007B50190FFF732FE0198FFF7DF
S21400A18045FF20B903B05DF804EBFFF7CFBF03B07F
S21400A1905DF804FBFFF7F2BD30B5154B87B00293B0
S21400A1A0144B0390049346F611030D46059300F0F6
S21400A1B0FDF91428044616D1684600F031FA4FF02F
S21400A1C0A843032202A95A6319601D619A63DA6BD9
S21400A1D09207FCD1142C02D1684600F02FFA00F04A
S21400A1E019FA044601E00028E9D0204607B030BD41
S21400A1F0C4180020040000202DE9F04FB1B0054639
S21400A2008C46E9466D4F3B9EDDF8F8E0409C07F132
S21400A210100AC846386879680837A8E80300574522
S21400A220C146F6D10EEB0208C8F1000909F00F0985
S21400A230002E00F0AF80774207F00F070121DDF80F
S21400A240FCB0C4F1100ACDF810B0059144F00051EE
S21400A25006914FEA0A2101F4F85141F021010791D5
S21400A26006B96B460893002D40F09680002C00F04F
S21400A270938004AB0993002E00F0908046F00053C4
S21400A2800A93002D40F08D80002C14BF012321235B
S21400A29043EA07230B9308A942F00053CDF830C0D9
S21400A2A03D980D910E934FEA092343F041030F9317
S21400A2B0109002B10CA9002A16BF00224FF00052DF
S21400A2C0412342EA0E021191129213933C9B3C4AA0
S21400A2D0149310AB15933B4B0021169340F61103D5
S21400A2E01793394B002D08BF1346189314AB1993D8
S21400A2F0364B10221A9311231B931CAB184614F0EE
S21400A300B0FD01221D924AF080421E9200220346B2
S21400A310239205B9EB46102C08BF01230DF1900AD5
S21400A320102200215046CDF880B02193229414F0DC
S21400A33098FD002C37D020AB002125938F4218BF04
S21400A340534647F0804226923A9A2CA88A42289290
S21400A350299313460CBF4FF080430B46102233431D
S21400A3602B912A9314F07DFDFEB95346C8442D93D5
S21400A3702CA948F0804318A82E93FFF70DFF30B99C
S21400A3802DB90346A34212D1002818BF2C2031B0A5
S21400A390BDE8F08F102751E701236BE747F0005325
S21400A3A06EE7212374E70123C6E728ABDEE730AA71
S21400A3B01A4412F8C02C01331043E3E7A0FC010056
S21400A3C0B4FC010010000020B8FC010004000020CE
S21400A3D0F0B549248FB08DF82440149C0DF1250566
S21400A3E004F10C0654F8047BB44245F8047BF9D11A
S21400A3F024782C7001258DF835509DF85450002493
S21400A4008DF8365004250695169DCDE90012059563
S21400A4101325049509ADCDE902358DF833200B469A
S21400A420224621468DF832408DF83440FFF7E4FE90
S21400A4300FB0F0BDF0B5C0299FB0249E4FD0B1F547
S21400A440807F04D0802941D029201FB0F0BD40F283
S21400A450344440F21445002E08BF2C462127102510
S21400A460019401240296039404950597259F069768
S21400A47006B102AC07940124089509940A92212299
S21400A4800B940C950D92174A0AAC0E92164A0F942E
S21400A490109242F61102119212931394149515928B
S21400A4A001AA1692CBB112AB17930423189311236B
S21400A4B0199316AB1A901B9340F61103C9081C910A
S21400A4C01AA806A91D93FFF767FEBEE7002E14BF65
S21400A4D04FF486644FF48264C0E70EABE4E70F20C7
S21400A4E0B3E700BFBCFC01001000001030B5C02A66
S21400A4F093B033D0B2F5807F04D0802A2BD02920A9
S21400A50013B030BD4FF482740194019C80F00100BA
S21400A51020430190169801250290102421200395CF
S21400A52004940590069301AB0795089409900A9346
S21400A53006AB0B9304230C9311230D930AAB0E91D9
S21400A5400F9340F61103D20802A90EA81092119399
S21400A550FFF722FED4E74FF48074D5E70F20CFE74D
S21400A5601FB5079C02949DF81840CDE900341346A9
S21400A5700A4601460020FFF72BFF04B010BD1FB5AA
S21400A580079C02949DF81840CDE9003413460A460D
S21400A59001460120FFF71CFF04B010BD08B500F00F
S21400A5A005F8BDE8084000F035B8000038B5164B91
S21400A5B05A6E42F004025A66D3F8802242F0010234
S21400A5C0C3F88022114B5B68C3F3080343B14FF016
S21400A5D0A842D36B13F0430FFBD11424204638BD9A
S21400A5E04FF0A843DC6B14F04304FBD1084D2B68F6
S21400A5F01BB904212846FFF743FB2B68013343F0C1
S21400A60000432B60EAE700BF0080005000ED00E04A
S21400A610C4180020014B00205B68704700ED00E086
S21400A62010B50446FDF7FAFE4FF0A8431A682260FC
S21400A6301B696360FDF7F6FE002010BD10B50446EA
S21400A640FDF7ECFE4FF0A84322681A6062681A61B4
S21400A650FDF7E8FE002010BD4FF40052034B00202B
S21400A6609A660322C3F86022704700BF009000502D
S21400A6704FF40052034B00209A660322C3F8602270
S21400A680704700BF00A000501FB54FF40052164B95
S21400A6909A660322C3F86022FFF784FBC30711D42F
S21400A6A00120FFF767FD002814BF6FF0920000201E
S21400A6B04FF400520D4B9A660322C3F8602205B091
S21400A6C05DF804FB10220021684614F0CAFB6846B9
S21400A6D0FFF7C2FBDDE900321343029A1343039AE5
S21400A6E01343DDD00020E3E70090005000A00050A8
S21400A6F0002070472DE9F04F4FF000081D464FF040
S21400A700050B89B0CDE90121C3F80080D5F800908B
S21400A710CDF81080FFF7B8FF044600283AD1029B18
S21400A72003EB0906019BA3EB090737F0030307F0C9
S21400A730030A009344D0CDE905630790FFF78CFF2A
S21400A740002839D108AB13E90700FFF7CBFCFFF769
S21400A7508FFFBAF1000F1BD004AB05930423CDE99D
S21400A7600638FFF779FF48BB08AB039013E90700EC
S21400A770FFF7B8FCFFF77CFF009B04991E44039B81
S21400A780DA00013321FA02F29A4506F8012BF7D8CF
S21400A79080B92F602B68019A4B44934228BF00244F
S21400A7A0BBF1010B2B6001D0002CAFD1204609B0C5
S21400A7B0BDE8F08FC5F800800446EBE70446E9E7FD
S21400A7C0BAF1000FE5D0C7E750E8003F0B4340E87A
S21400A7D00032002AF8D17047CB6918477047704797
S21400A7E00020704770474FF0000070470020704709
S21400A7F00020704770470020704700207047704761
S21400A80000207047002070470020704700207047E7
S21400A81000207047002070470020704700207047D7
S21400A820002070471120704700207047704784B0A2
S21400A83001A880E80E0004B070477047704700001B
S21400A84008B505F005FB034B1B680BB101F0F6F8E5
S21400A85008BD00BFC81800207FB505460C4619493C
S21400A86013460868496802AA03C295F82A201032DF
S21400A8706A4412F8086C95F84420D20608D422469A
S21400A8803146284601F034F900F5FA7004B070BD80
S21400A8902046019314F091FF95F8442000F10A0435
S21400A8A012F0030F019B4FEAC40405D0184614F0BB
S21400A8B084FF04F50C740444E823701E584304FB1C
S21400A8C00600E1E7C0FC010038B50446FDF7ADFD23
S21400A8D0D4E90C1205462046FFF7BEFFA28C0346BD
S21400A8E0E060E08C801A40F2712202FB003303F530
S21400A8F09C53083328462361BDE83840FDF79BBDCE
S21400A900014B9868704700BFC8180020F0B5104B80
S21400A91002461E6893F804C035464FF0FF34002305
S21400A9209C4508DC91B1631C10D08C2303FB0460AB
S21400A93080F84520F0BD95F8457028469742F9D036
S21400A940FF2F08BF1C468C350133E9E70020F1E7EE
S21400A950C818002070B50446204D00283CD00830AA
S21400A96004F0EAFC0026FF2304F1300084F84530AA
S21400A970E66114F035FD04F1340014F031FD04F105
S21400A980380014F02DFD04F13C0014F029FD286871
S21400A990134B201A80105843C0B2FFF737FF01460A
S21400A9A03046FFF72CFF206C10B103F097F92664B1
S21400A9B0206E18B101F05BFF00232366606EFFF780
S21400A9C03CFF70BD286806FB0400FFF7C3FF013498
S21400A9D02B79A342F6DCF4E78C26F9E7C8180020AA
S21400A9E08BAFF88A08B52030FFF7EEFEBDE80840CA
S21400A9F04FF080500DF096B8F7B504460BF099FF6F
S21400AA00C0F30F23542B43D9AA2B34BF01230223B0
S21400AA10C0B27F2834BF0122022203218DF8043001
S21400AA201344B3FBF1F000EB40001B1A8DF8053021
S21400AA301344B3FBF1F202EB42029B1A8DF8063088
S21400AA40002318461D461A46124901AF81F84130C8
S21400AA5017F8016B44FA06FC1CF0010F06D05300F1
S21400AA609E40012330430132C0B2D2B20135EDB26E
S21400AA70032DEDD10BB181F8410091F8413043EA46
S21400AA808212FF2381F8412081F8403003B0F0BDE8
S21400AA900023BDE7C818002038B52D49044691F8B4
S21400AAA0402091F841300132D2B2B2EB931F81F8C8
S21400AAB0402004D30323002081F8403038BD016ACB
S21400AAC009033CD5032290F87A30243B93FBF2F23C
S21400AAD002EB42029B1A2533DBB284F87A3004F18B
S21400AAE06C0502F07AF950B194F84430DB062CD4A9
S21400AAF094F87A0002F074F980F00100C0B2B4F95C
S21400AB005A1000F001000CF09BFE0CF0F7FEB4F9B2
S21400AB107420824204D0A4F874000CF079FD688199
S21400AB2028460CF073F9002211461046FFF756FE31
S21400AB3094F87A00002102F04FF90120BEE7520097
S21400AB40134103F003032533C7E70020D7E700BF10
S21400AB50C818002037B5044600250830019104F0D7
S21400AB60EBFB204601990BF08FFD206CE56110B1E0
S21400AB7003F0B4F8256404F14C0003B0BDE830409F
S21400AB8014F02EBC38B5044619B390F828208AB1C4
S21400AB9090F829300133DBB29A4280F8293009D187
S21400ABA00121FFF7D7FF4FF080712046BDE83840FF
S21400ABB0FFF718BF236A1A040BD5E36A62689B1A6C
S21400ABC0002B06DA01212046FFF7C4FF4FF0806114
S21400ABD0EBE7236A5B0426D40BF0ABFE1123B0FB35
S21400ABE0F3F303EB0313C01A94F9593085B213FA42
S21400ABF080F0102888BFC5F110056DB2083B2B44C5
S21400AC0084F85930204601210BF03EFD40F27122B7
S21400AC10A38C20461D44636802FB05336360BDE8D1
S21400AC2038400BF0E3BC0025ECE7000038B543697C
S21400AC30044623F010034361B0F85C302BB98368F8
S21400AC4013F4601F08BFA0F85C30236A13F01005E9
S21400AC5018D003F00303144A002B08BF0025134B3B
S21400AC601CBF012513462046E361FFF715FF58B1C8
S21400AC706800617E0CF0A6F90D4B9868BDE8384078
S21400AC800CF02EB9094BEEE70A4B617E1A68204697
S21400AC90D37A92780B449342D8BFDAB26276012117
S21400ACA0BDE83840FFF76EBF89B7000045B7000023
S21400ACB0C8180020081B0020014B1879704700BFF9
S21400ACC0C81800202DE9F84F04460E46E1691D46D7
S21400ACD091469DF828B09DF82C809DF838A09DF8E8
S21400ACE040009DF848309DF85070002940F09B8049
S21400ACF0EA0600F18B8005F00301032908BF05F082
S21400AD00FD0505F0F705A906BDF83C1048BF05F09F
S21400AD10FC05A4F85A1047F6FF718207A4F87410D1
S21400AD2077D410F0040F0CBF0120032094F87B109A
S21400AD3060F3030184F87B1047F6FF719807A4F8C8
S21400AD40841068D413F0040F0CBF0121032194F87B
S21400AD508B30206E61F3030384F88B3001F04FFED6
S21400AD60236A23F4954323F07F03002F55D1290748
S21400AD70236206D54FF006094E46236A43F40423A1
S21400AD802362236A6A0723F4405323620CD41AF022
S21400AD90010F1CBF43F4805323621AF0020F1EBF3C
S21400ADA0236A43F400532362236A84F844501D4305
S21400ADB0BBF1000F34D125620BF0BBFD9DF84C3083
S21400ADC0C0F30B0040EA03309DF83430A4F8680066
S21400ADD084F82A3094F84430A6845B07A4F82690BA
S21400ADE00ED50C9B1B68C4F853300C9B9B88A4F8AC
S21400ADF05730B8F1000F03D0236A43F48073236200
S21400AE002046FFF761FD0020BDE8F88F01231846B5
S21400AE1079E702208AE7022199E743F40063A6E770
S21400AE2045F40075C7E70120EEE72DE9F7438946AC
S21400AE3017460446019330B901A814F0D1FA42200F
S21400AE4003B0BDE8F083012920D0022910D089B9CB
S21400AE50C369C3B900F130054FF48036236AD906BA
S21400AE601ED55A0726D501A814F0BAFA0020E7E73F
S21400AE70006E20B901A814F0B3FA0C20E0E71946DA
S21400AE8001F037FFDCE700F13805E5E7C36923B9D1
S21400AE9000F134054FF40036E0E700F13C05F9E731
S21400AEA09B0707D5B9F1000F04D101A814F098FA52
S21400AEB01220C5E7F14304F1200858E8003F0B4094
S21400AEC048E80032002AF8D1F80702D5284614F0E0
S21400AED087FA019921B1284614F07AFC00230193E1
S21400AEE0286814F06AFC236AD90605D51F2801DCF9
S21400AEF0032F11D02846D9E740F27262904204DD53
S21400AF00284614F06DFA45209AE7B9F1000F03D1F0
S21400AF10BF2801DD9A07F3D1D4E90E122046FFF7C9
S21400AF209BFCE3696BB140F27122A38C53439842B9
S21400AF3007D9E38C8342E3D300F51C70B0FBF2F034
S21400AF40A084FDF772FAE36905467BB1BB070DD511
S21400AF5031464046FFF738FC6368C3F57A760BF057
S21400AF60FCFEF04202D520460BF0C6FC2846FDF754
S21400AF7062FA7BE708B548B111F0010108D020302D
S21400AF804FF48011FFF720FC002008BD4220FCE7AC
S21400AF900846FAE768B1CB0701D400207047203096
S21400AFA050E8003F23F4801340E80032002AF7D12F
S21400AFB0F3E74220704700002DE9F0410025304EAF
S21400AFC088B03379AB4203DC012008B0BDE8F081DD
S21400AFD08C23346803FB054494F84530FF2B0DD0D2
S21400AFE0236A9B0106D504F14C08404614F0DDFBAD
S21400AFF0074628B9226A12F0A06F13D10135E0E7A0
S21400B000BB7994F845100C333B441A8AD868ADF8DF
S21400B0101C209A7A069006AB3846C2F3801204F0DB
S21400B020B7FDE2E794F844301D2B19D100203C23ED
S21400B0300121CDE90303CDE90100009004F153039B
S21400B040C2F3002205F033FC0028BED0203454E8BA
S21400B050003F23F0A06344E80032002AF7D1CDE792
S21400B06012F0807F18BF43214FF0000208BF3C213A
S21400B07094F8293094F8450005F007F9E4E700BF96
S21400B080C8180020F8B51F46C36904460D46164684
S21400B0906BB1002979D1FDF7C8F906462946204646
S21400B0A0FFF758FD3046FDF7C6F92846F8BD0029DB
S21400B0B0FBD0036A03F01203022B68D0236AD8077A
S21400B0C06CD494F84530FE2B0AD104F1460005F006
S21400B0D091FE05F087FE18B1236A43F4806323626D
S21400B0E0236A03F4C062B2F5007F79D0D9065FD533
S21400B0F03D4BE361002384F82930236AE168B4F805
S21400B1005C5023F4004284F82870226221613DB925
S21400B11013F0100F14BF3C25C825257605F2B3158D
S21400B1204EB140F27121E38C42F40042C3EB0613A9
S21400B1304B432262E362236A43F4802323622B4B51
S21400B1401B68DB786376FDF770F96369074643F0A2
S21400B150100304F108002946636104F093F8012007
S21400B1600BF03AFA28B963691A075CBF43F0040388
S21400B170636126B10BF0F1FDE36A1844E0622046F5
S21400B1800BF034FA3846FDF756F900258DE7406B8C
S21400B19014F013FB002891D10C2586E7236C002BB6
S21400B1A08FD102F04BFD206400288AD109257CE768
S21400B1B02046D4E90C12FFF74FFB012F0ED040F2C9
S21400B1C07123A28C5A43904208D9E28C5A4390428B
S21400B1D008D800F51C70B0FBF3F0A084044B88E799
S21400B1E0122562E7452560E745B70000081B0020EA
S21400B1F0BBC0000070B500248C26094D2B79A342F5
S21400B20000DC70BD286806FB040090F84530FF2B74
S21400B21004D000231A461946FFF734FF0134EDE741
S21400B220C818002006222DE9F0412A4B07469C68E4
S21400B2308846A5790C35635D661903F04F036355A0
S21400B240727090F84430103B0D2B20D8DFE803F0E6
S21400B2503F1F3B071F0C1F1F1F1F1F1F1F0C635D79
S21400B2606FF30303635512E00122635D62F3030389
S21400B27063550C237370D0F85330B360B0F8573072
S21400B280B381036A625D1B0A63F3C712625505F059
S21400B290DDFE430444BF635D97F84420314644BF57
S21400B2A062F3451363553846B21C01F054F9A3798E
S21400B2B0717802330B44B8F1000FE371A4BF414428
S21400B2C07170BDE8F081635D62F30303CAE7022292
S21400B2D0635DF9E7C818002010B5418904468389E4
S21400B2E0C289084605F071FFE8B1E279531E072BC4
S21400B2F01AD86389934217D922899A4214D8237C94
S21400B3004BB9637C3BB9A37C2BB9E37C1BB9237D8B
S21400B31013F0F0030AD0607D1B3000F01F000B28EE
S21400B3208CBF0020012010BD0020FCE71846FAE77D
S21400B3302DE9F843354B8C79D3F808900C340C443F
S21400B34099F8067022790C37D507064609EB0703ED
S21400B3502AD594F80B80B8F1250F25D8056A991CD4
S21400B36015F0100F08BF0231062204F1120013F088
S21400B37041FDC8B919F80730A07AC3F38013B3EBC0
S21400B380D01F11D115F4405512D14FF44055A77A6D
S21400B39007F00F03032B16D1E80405D5326A910790
S21400B3A002D5B8F10C0F2FD04FF0FF30BDE8F88370
S21400B3B004F10C01C0F380100CF0C0FC0028E4D1AE
S21400B3C085F44055E3E7052BEED1AA04ECD5356AA3
S21400B3D005F01403142B0DD1062206F1530104F1D7
S21400B3E00C0013F007FD2B0A83EA971303F0010302
S21400B3F00343D9D1EB07D7D504F11800FFF76CFF4C
S21400B4000028D1D00520D1E71846CFE7C81800207D
S21400B4102DE9F04F91F806B00E460BF10C0B01EB40
S21400B4200B05A97A05F10C08044687B04046C1F31F
S21400B430801102F09BFC30B1304613F0FDFE002078
S21400B44007B0BDE8F08FD4F84090206495F807A0C8
S21400B45029895046276A56F80BB00BF097FC07F080
S21400B460100758448FBBAAF1030ABAF1010F8CBF2C
S21400B4700422062240F2712B184B0BFB02021B68BB
S21400B48094F845E05B796376A97A05F11803C1F371
S21400B490801CE7B10120C1F3401195F90550CDE9B4
S21400B4A002E1CDE9040500214846CDE9008C02F012
S21400B4B0A1FD2FB10BF05EFF01212046FFF74AFBEE
S21400B4C0304613F0B9FE0120BAE70222D2E794F81C
S21400B4D08B00012100F00F00DFE700BF081B0020F3
S21400B4E000232DE9F3414FF0FF31044601A80193F4
S21400B4F00BF048FB019949B12046FFF719FF0328D6
S21400B50006D005283FD001A813F06AFF012033E0DB
S21400B510236A1B0533D5019904F14C0014F058F941
S21400B5204FF000712046FFF75DFA617E00201B4E4B
S21400B5300BF09CFD606BB76814F03FF90546BB79CD
S21400B54020460C33FA5C07EB030802F0400242F098
S21400B5500402FA54414608F1020200F0FCFFB0680B
S21400B560636B002DA4BF063588F8015003600BF00E
S21400B570B7FC00200A4BE36102B0BDE8F08101A8E9
S21400B58013F02EFFD1E701980BF0B2FB204601998D
S21400B590FFF73EFF80F00100C0B2EDE7C8180020BC
S21400B5A055B7000038B5C36904460D463BB1036A7B
S21400B5B013F0010311D190F84520FE2A0FD004F1B4
S21400B5C020004FF48061FFF7FFF801202B68C4F8D5
S21400B5D04630AB88A4F84A3038BD0020FCE7184651
S21400B5E0FAE7036A10B5044613F4E02029D0DA031C
S21400B5F007D504F1300013F0F3FEA36B236300239A
S21400B600A363236A9B0307D504F1340013F0E8FE16
S21400B610E36B63630023E36304F1200252E8003F18
S21400B62023F4E02342E800310029F7D12046FFF753
S21400B6304BF90120B4F868305A1C62F30B03A4F8E7
S21400B640683010BD2DE9F84306460C4606286FD82C
S21400B650DFE800F00451596E6E6959000846FFF79E
S21400B660C0FF40F27122E38C53432361236A13F038
S21400B670100503D013F0030518BF012594F82A001F
S21400B680FFF7BAF92046FFF707FA2A4A2A4B206B3B
S21400B690002D08BF1346E36114F08FF8DFF8A08092
S21400B6A001462046FFF7BEFDD8F80830226B6768D3
S21400B6B01A60636903F010090BF04FFB627EB9F164
S21400B6C0000F03D13F1AB7F59B7F0CD5002D11460E
S21400B6D00CBF304602200BF075FCD8F80800BDE819
S21400B6E0F8430BF0FDBB002D0CBF3046022061680E
S21400B6F00BF08AFCF1E70BF0F9F8844218D1BDE8AC
S21400B700F8430BF037BE0D4B20461A68637ED17A9D
S21400B710D2785B1A9342A8BFDAB262760021BDE8FF
S21400B720F843FFF72FBA0846BDE8F843FFF77EBA9E
S21400B730BDE8F88345B7000089B70000081B002065
S21400B740C8180020032802D10846FFF76FBAFFF793
S21400B75079BF0000032810B50C460FD1086B14F013
S21400B7602CF801462046FFF75DFD064B226B9B68D2
S21400B7702046BDE810401A60FFF758BABDE81040F2
S21400B780FFF760BFC8180020032810B50C4605D088
S21400B790042809D0BDE81040FFF754BF0120BDE8DB
S21400B7A01040497E0BF086BB0846FFF799FE30B185
S21400B7B00BF0E0FD2046BDE81040FFF737BA10BD9D
S21400B7C010B504464FF480212030FEF7FDFF2046DA
S21400B7D0BDE810400BF090B808B50020FFF7BAF8A7
S21400B7E0BDE80840FFF72CB82DE9F0474F4D04465A
S21400B7F0A86818B113F020FD0023AB60FFF7ECFF3C
S21400B8002B7923BB0020FFF709F824BB0026032072
S21400B8102C712E60A5F8426013F054FCB4422DDC67
S21400B8202879FEF7FBFFD8B9BDE8F08708FB06F7D6
S21400B830286801363844303013F0D2FD2868384482
S21400B840343013F0CDFD2B79B342EFDCDAE7002677
S21400B8504FF08C08F7E7022013F0ACFEA86050B952
S21400B8600024A8682C712C6000285AD10020FEF70E
S21400B870D5FF0720D8E700F0E1F8C7E704EB84011E
S21400B880C1EBC101890033460122032089B213F0BF
S21400B890CBFB07460028E3D1032013F04FFC2860BB
S21400B8A00028DDD08C223946624313F0DAFADFF83E
S21400B8B080A0DFF88080DFF880902B79BB42AFDD78
S21400B8C08C2300262C68314603FB0744C4E9036634
